:020000040800F2
:1000000000000220690900082DD90008C109000874
:1000100031D9000835D9000839D90008000000009E
:100020000000000000000000000000003DD90008B2
:1000300041D900080000000045D9000849D900084E
:10004000C1090008C1090008C1090008C109000868
:10005000C1090008C1090008C1090008C109000858
:10006000C1090008C1090008C10900084DD90008EC
:1000700059D9000865D90008C1090008C10900085C
:10008000C1090008C109000871D90008C1090008A8
:10009000C1090008C1090008C1090008C109000818
:1000A000C1090008C1090008C1090008C109000808
:1000B000C1090008C1090008C1090008C1090008F8
:1000C000C1090008C1090008C1090008C1090008E8
:1000D000C1090008C1090008C1090008C1090008D8
:1000E000C1090008C109000800000000C10900089A
:1000F000C1090008C1090008C1090008C1090008B8
:10010000C1090008C1090008C1090008C1090008A7
:10011000C1090008C1090008C1090008C109000897
:10012000C1090008C1090008C1090008C109000887
:10013000C1090008C1090008C1090008C109000877
:1001400000000000000000000000000000000000AF
:10015000C1090008C1090008C1090008C109000857
:10016000C1090008C1090008C1090008C109000847
:10017000C1090008C1090008C10900080000000009
:10018000C1090008C1090008C1090008C109000827
:10019000C1090008C1090008C1090008C109000817
:1001A000C1090008C1090008C1090008C109000807
:1001B000C1090008C1090008C10900087DD900086B
:1001C00089D90008C109000895D90008A1D90008FB
:1001D000C1090008ADD90008B9D90008C109000853
:1001E000C1090008C1090008C1090008C1090008C7
:1001F000C1090008C1090008C1090008C1090008B7
:10020000C1090008C1090008C1090008C1090008A6
:10021000C1090008C1090008C1090008C109000896
:10022000C1090008C1090008C10900080000000058
:10023000C1090008C109000800000000C109000848
:10024000C1090008C5D90008D1D90008C1090008B2
:10025000C1090008C1090008C1090008C109000856
:10026000C1090008C1090008C1090008C109000846
:10027000C1090008C1090008C10900080000000008
:10028000C1090008C1090008C109000800000000F8
:0802900000000000C109000894
:1002A00010B5054C237833B9044B13B10448AFF3B0
:1002B00000800123237010BDA81000200000000062
:1002C0008CDF010808B5034B1BB103490348AFF3AA
:1002D000008008BD00000000AC1000208CDF010889
:1002E00081F0004102E000BF83F0004330B54FEAE7
:1002F00041044FEA430594EA050F08BF90EA020F54
:100300001FBF54EA000C55EA020C7FEA645C7FEAE6
:10031000655C00F0E2804FEA5454D4EB5555B8BF09
:100320006D420CDD2C4480EA020281EA030382EA7A
:10033000000083EA010180EA020281EA0303362D0C
:1003400088BF30BD11F0004F4FEA01314FF4801CDF
:100350004CEA113102D0404261EB410113F0004FF1
:100360004FEA03334CEA133302D0524263EB4303A8
:1003700094EA050F00F0A780A4F10104D5F1200E46
:100380000DDB02FA0EFC22FA05F2801841F10001A1
:1003900003FA0EF2801843FA05F359410EE0A5F175
:1003A00020050EF1200E012A03FA0EFC28BF4CF0A6
:1003B000020C43FA05F3C01851EBE37101F000455C
:1003C00007D54FF0000EDCF1000C7EEB00006EEB69
:1003D0000101B1F5801F1BD3B1F5001F0CD34908F3
:1003E0005FEA30004FEA3C0C04F101044FEA44524A
:1003F00012F5800F80F09A80BCF1004F08BF5FEAD1
:10040000500C50F1000041EB045141EA050130BDB0
:100410005FEA4C0C404141EB010111F4801FA4F153
:100420000104E9D191F0000F04BF01460020B1FAA8
:1004300081F308BF2033A3F10B03B3F120020CDAE0
:100440000C3208DD02F1140CC2F10C0201FA0CF0BE
:1004500021FA02F10CE002F11402D8BFC2F1200C23
:1004600001FA02F120FA0CFCDCBF41EA0C019040D9
:10047000E41AA2BF01EB0451294330BD6FEA040422
:100480001F3C1CDA0C340EDC04F11404C4F120020D
:1004900020FA04F001FA02F340EA030021FA04F31F
:1004A00045EA030130BDC4F10C04C4F1200220FA76
:1004B00002F001FA04F340EA0300294630BD21FAB4
:1004C00004F0294630BD94F0000F83F4801306BF7A
:1004D00081F480110134013D4EE77FEA645C18BF6E
:1004E0007FEA655C29D094EA050F08BF90EA020F05
:1004F00005D054EA000C04BF1946104630BD91EAFD
:10050000030F1EBF0021002030BD5FEA545C05D1FF
:100510004000494128BF41F0004130BD14F580043E
:100520003CBF01F5801130BD01F0004545F0FE41B2
:1005300041F470014FF0000030BD7FEA645C1ABFE7
:10054000194610467FEA655C1CBF0B46024650EA1E
:10055000013406BF52EA033591EA030F41F400214A
:1005600030BD00BF90F0000F04BF0021704730B5D0
:100570004FF4806404F132044FF000054FF00001A5
:1005800050E700BF90F0000F04BF0021704730B566
:100590004FF4806404F1320410F0004548BF40423B
:1005A0004FF000013EE700BF42004FEAE2014FEA90
:1005B00031014FEA02701FBF12F07F4393F07F4F6B
:1005C00081F06051704732F07F4208BF704793F06E
:1005D0007F4F04BF41F40021704730B54FF4607481
:1005E00001F0004521F000411CE700BF50EA010284
:1005F00008BF704730B54FF000050AE050EA01022D
:1006000008BF704730B511F0004502D5404261EB9C
:1006100041014FF4806404F132045FEA915C3FF4DD
:10062000D8AE4FF003025FEADC0C18BF03325FEA7A
:10063000DC0C18BF033202EBDC02C2F1200300FA2B
:1006400003FC20FA02F001FA03FE40EA0E0021FA50
:1006500002F11444BDE600BF53B94AB9002908BFEE
:1006600000281CBF4FF0FF314FF0FF3000F072B98F
:10067000ADF1080C6DE904CE00F006F8DDF804E0F9
:10068000DDE9022304B070472DE9F047089E0446D7
:100690008846002B4BD18A42154667D9B2FA82F2BE
:1006A0004AB1C2F1200701FA02F320FA07F7954098
:1006B00047EA030894404FEA154E230CB8FBFEF7B7
:1006C0001FFA85FC0EFB178843EA084307FB0CF171
:1006D000994209D9EB1807F1FF3080F01B8199424C
:1006E00040F21881023F2B445B1AA4B2B3FBFEF028
:1006F0000EFB103344EA034400FB0CFCA44509D96B
:100700002C1900F1FF3380F00781A44540F20481E9
:1007100002382C4440EA0740A4EB0C0400271EB129
:10072000D4400023C6E900433946BDE8F0878B4238
:1007300009D9002E00F0EB800027C6E900013846F9
:100740003946BDE8F087B3FA83F7002F47D18B42D3
:1007500002D3824200F2FA80841A61EB0303012083
:100760009846002EE0D0C6E90048DDE702B9FFDE7A
:10077000B2FA82F2002A40F08F80491B4FEA154EF0
:100780001FFA85F80127B1FBFEFC230C0EFB1C11A0
:1007900043EA014308FB0CF1994207D9EB180CF12D
:1007A000FF3002D2994200F2CD808446591AA3B29A
:1007B000B1FBFEF00EFB101443EA044408FB00F802
:1007C000A04507D92C1900F1FF3302D2A04500F251
:1007D000B6801846A4EB080440EA0C409FE7C7F136
:1007E000200CBB4022FA0CFE4EEA030E01FA07F47D
:1007F00020FA0CF521FA0CF34FEA1E482543B3FB0F
:10080000F8F92C0C08FB19331FFA8EFA44EA03435B
:1008100009FB0AF49C4202FA07F200FA07F10BD92D
:100820001EEB030309F1FF3080F087809C4240F209
:100830008480A9F1020973441B1BADB2B3FBF8F02D
:1008400008FB103345EA034400FB0AFAA24508D925
:100850001EEB040400F1FF336BD2A24569D90238C4
:10086000744440EA0940A0FB0289A4EB0A044C4509
:10087000C2464B4654D351D0002E69D0B1EB0A0585
:1008800064EB030404FA0CFCFD40FC404CEA050553
:10089000C6E90054002747E7C2F1200320FA03F716
:1008A000954001FA02F021FA03F34FEA154E38435E
:1008B000010CB3FBFEF71FFA85F80EFB173341EA74
:1008C000034107FB08F38B4204FA02F407D96918C5
:1008D00007F1FF3C2FD28B422DD9023F2944CB1A7E
:1008E00081B2B3FBFEF00EFB103341EA034100FB83
:1008F00008F38B4207D9691800F1FF3C17D28B42ED
:1009000015D902382944C91A40EA07473BE7374658
:10091000304609E70746E7E61846FBE64145ABD215
:10092000B8EB020A69EB0E0201381346A4E76046F1
:10093000E9E7184695E76746D1E781467CE7023844
:100940002C4447E7ACF1020C2B442FE7384608E76C
:100950003746E9E6704700BF034613F8012B002A2B
:10096000FBD1181A01387047DFF834D0002103E0BA
:100970000C4B5B58435004310B480C4B42189A42C5
:10098000F6D30B4A02E0002342F8043B094B9A429B
:10099000F9D30DF041F81AF0C3F809F0A7FA70473F
:1009A00000000220B8A3130800000020A8100020B7
:1009B000A8100020D8540020000000000000000013
:1009C0000B4B1A68D2B21EF0040F0CBFEFF3088075
:1009D000EFF309808169DFF804201047E5A00008E3
:1009E000FEE700BFAFF30080AFF30080AFF30080FD
:1009F00004ED00E010B52DED028BF0EE408A0446C8
:100A0000B0EE608A0C2003F0C9FD00232060C0ED29
:100A1000018A80ED028A0360BDEC028B10BD00BF2D
:100A2000006803F0AFBE00BFB5EEC00A0368D3EDA7
:100A3000007AF1EE10FA48BFB1EE400AF4EEC07A47
:100A4000F1EE10FA14D893ED017AB4EEC07AF1EE1B
:100A500010FA0DD5DFED0D7AB4EEE70AF1EE10FADB
:100A600011D5DFED0B7AB0EE670AC3ED007A70475F
:100A700093ED020A27EE800ADFED047AB4EEE70A6E
:100A8000F1EE10FAEDD483ED000A7047EEE36C004E
:100A90000000000010B504460C202DED028BB0EED6
:100AA000408A03F07BFDF7EE007A2060002380EDA2
:100AB000008A37EEC80A8360BDEC028B80ED010A24
:100AC00010BD00BF006803F05DBE00BF10B509682F
:100AD00004460C202DED028BB0EE408A03F0C6FCDC
:100AE000F7EE007A2060002380ED008A37EEC80A16
:100AF0008360BDEC028B80ED010A10BD09680068BF
:100B000003F0ECBD0368D3ED026A93ED007AD3EDF8
:100B1000017A20EE077A67EEA67AE7EE007AB0EE69
:100B2000670AC3ED027A70472DE9F04F2DED048B73
:100B300083B08946044641F29810109D17469846A6
:100B4000296803F0D9FCB9F1000F0646206079DD71
:100B500007EE909A9FED410A4FEA691509F13F0BA4
:100B6000B8EEE78A1FFA89F480EE080A1AF026FA2E
:100B7000002F4FF0000141F2061206F58853D8BF4E
:100B80004FEA690741F29210B4521FFA88F8AF4257
:100B9000198041F2941241F29013D8BF6F1C41F2B8
:100BA00002158DED010AF7EE008ABFB29FED2C9A77
:100BB00006EB890A77530D46375241F20C1026F89E
:100BC00002808022F45230441AF01CF834469DED25
:100BD000010A09E007EE905AB8EEE70A20EE090A8A
:100BE00080EE080A1AF0EAF9013538EEC00AC0EEC4
:100BF000087AE4EC017AA245ECD1D94508DC0BF186
:100C0000010250460021A2EB0902920019F0FAFFFE
:100C100041F28C12002441F2961140203244B7FB7D
:100C2000F8F308FB137314609BB2705213B147447E
:100C3000FB1A9FB241F20413F75203B0BDEC048BD0
:100C4000BDE8F08F4FF48064B7EE000A40F23F4BEE
:100C50009FED048AA14620258AE700BF000000001E
:100C6000DB0FC94000008044026841F208131344BE
:100C700093ED000A03F0A8BB2DE9F04F07680D467D
:100C80002DED068B8DB0798A3C8A00934E1EBB8A6F
:100C900003923A68049001927A68B1FBF3F3013B46
:100CA0000292234007931BD0009B9BB1039A05EB54
:100CB000830CDDE901E8A30055F8040B01340EEBC9
:100CC00003014344654504EA060408601B6842F8D2
:100CD000043BF0D13C820DB0BDEC068BBDE8F08F3B
:100CE0004FEA410907EE909ACB46B8EEE70BB5EE16
:100CF000400BB1EEC08BF1EE10FA00F14E821046BF
:100D00009046DDF804E0059108910697B7EE006B78
:100D100086EE087BB7EEC77B79B1024600EB810A0D
:100D200023460EEB830C0133DCED007A334067EE93
:100D3000877AE2EC017A9245F3D1494507DAA9EBCB
:100D4000010200EB81000021920019F05BFF069B7D
:100D500041465846D3F8089006F0F0FAD8ED007AEC
:100D6000089B67EEA77A059908EB83030129C8ED74
:100D7000007AD3ED007A67EEA77AC3ED007A13DD2F
:100D800008EB810008F1040308EB8B02002172EDEF
:100D9000017A93ED007A67EEA77AE7EE077AE3EC43
:100DA000017A98421160F2D1059B5A1008D008EBE5
:100DB0008202434653F8041B9A4249F8041BF9D1B6
:100DC0005846414606F0E2FA049BB7EE007A9FEDE2
:100DD000879A1A68518A138A07EE901A099192ED40
:100DE000098AF8EEE77A09990892B7EEC88A10687E
:100DF00003EB010B87EE270A526801F1FF3A0592D7
:100E000067EE897AFDEEE77A17EE909AB7EEC00AA0
:100E1000B5EE400BB1EEC0ABF1EE10FA00F1CF81B0
:100E200017EE908A1146069288EE0A7BD1ED006A91
:100E30004FF07E5CC1F800C0B7EEC76B26EE066AC5
:100E4000B4EEE66AF1EE10FA36FE266AB7EEC66A2E
:100E5000B9F1010F36EE066B2BDDB6EE005A01F14B
:100E6000040C03F1FF3E0121ABEB01020EEB010389
:100E7000DCED005A013102EA0A0203EA0A0389455D
:100E800000EB820200EB830392ED007AD3ED007A4F
:100E900027EE077AA7EEA77AB7EEC77A36EE476B4A
:100EA000F7EEC67B67EE857A85EEA77AACEC017A21
:100EB000DAD1099B4B4508DDA3EB0902059B002114
:100EC00003EB8900920019F09DFE089BB8F1010F19
:100ED000DA6840F38780069BD3ED017AF5EEC07A9D
:100EE000F1EE10FA7ED408334FF0010906E0F3EC7E
:100EF000017AF5EEC07AF1EE10FA03D409F1010996
:100F0000C145F4D108F1FF38C84566DD4FEA890BC9
:100F100000230594ABF1040A9344069A1C469FED06
:100F2000358A924405E009F101090BF1040BC14532
:100F300028D052460AF1040A92ED007ADAED007ADE
:100F4000F4EEC77AF1EE10FAEDDB9AED017AF4EEE9
:100F5000C77AF1EE10FAE6DD4946069802F0CAFFBC
:100F6000DBED007A20EE270AB4EEC80AF1EE10FAA3
:100F7000D9DD4C4609F10109B0EE408A0BF1040BB2
:100F8000C145D6D12346049A059CD2F800809BB275
:100F9000089AD382B8F81690B9F1000F3FF484AEE6
:100FA0004946D8F8040002F0C3FF07EE909AB2EE6B
:100FB000007AF8EE677A37EE800AB4EEC70AF1EEEF
:100FC00010FA19D488ED060AB8F81610D8F80400FB
:100FD00002F090FF88ED070A66E6DDF82080002326
:100FE0004246D6E74FF001098CE700BF9A99593F76
:100FF000CDCC4C3F00000000F1EE007AB4EEE70AE1
:10100000F1EE10FADED4049BF6EE007AF7EE045A05
:101010001FED096AD3F800B0BBF81230DBF8089076
:1010200007EE103A5B08B8EEC77A5A1E37EE077A19
:10103000C7EE006AB0EE677AA6EEA57AE6EE867A8B
:10104000BDEEC77AFDEEE77A17EE101A17EE903A6A
:101050009142A8BF1146012BB8BF0123994240F32A
:1010600089806FF040425FED1D6A1A4409EB8202ED
:101070001046043290ED007AD2ED007AF4EEC77A91
:10108000F1EE10FA0EDB92ED017AF4EEC77AF1EE92
:1010900010FA07DDF4EEE67AF1EE10FA02DDF0EE7A
:1010A000676A079301339942E2D1079B03F1FF3A44
:1010B00001339A45049346DC4FEA8A0209EB0203A6
:1010C00093ED000AB5EE400AB1EEC08AF1EE10FAD7
:1010D00000F193800AF1010183ED008A049B8B42A9
:1010E00031DB02F1040ACA449AED000AB5EE400A67
:1010F000B1EEC08AF1EE10FA00F18980481C049B21
:101100008AED008A83421EDB02F1080ACA449AED86
:10111000000AB5EE400AB1EEC08AF1EE10FA7DD4B5
:1011200002318AED008A8B420DDB0C3209EB020A98
:101130009AED000AB5EE400AB1EEC08AF1EE10FA5F
:1011400062D48AED008A4846DDF81C90494602F0D8
:10115000EFFEBBF8123007EE109A07EE903AB8EEA9
:10116000C77AF8EEE77A37EE007A77EEA77A87EE5D
:10117000870A27E719ED010AA9F10403B5EE400A31
:10118000B1EEC08AF1EE10FA31D4012309ED018AE3
:1011900000216FF003020493A3E709911AF05CFDAC
:1011A000049BD7F800E01B6878685A8A0693089277
:1011B0004FEA420BD3F8048005920999A6E5CDE9E0
:1011C0000A301AF049FD049B05991B685A8A089356
:1011D00007EE902A5B68F8EEE77A0693DDE90A30BD
:1011E00027EE899AFDEEC97A17EE908A1CE6012156
:1011F0006FF003024FF0FF3A0491CDE905231AF096
:101200007FFDDDE9052365E71AF07AFD99E7CDE971
:1012100005211AF075FDDDE905216FE7CDE905210E
:101220001AF06EFD049BDDE9052179E72DE9F04711
:101230002DED028B82B01C46054689460D9F582035
:10124000DDF830809246396803F056F92860402274
:10125000C0F808904FF040114FF000091423012509
:101260008163114680F83C304346C0F83090064612
:10127000C0F80CA0C0E9048494FBF8F4C0E9075955
:1012800084614FF000080097FFF74EFC3F6828206C
:10129000394603F0EBF84FF080630446424A434876
:1012A0003946746062622361A4F8169020624FF49C
:1012B0008050C4F81880C4F81C8003F01DF939462A
:1012C00020604FF4005003F017F9394660604FF486
:1012D000006003F011F93946A0604FF4805003F02C
:1012E0000BF9D6F804909FED327AB9F81230E0602D
:1012F00007EE903A99ED088AF8EEE77A67EE877A7A
:10130000FDEEE77A17EE907A3B1F00EE103AB8EE4A
:10131000C00A19F01BFFD9F80C40052F88EE000A0F
:10132000C4F80080C4F80480C4F80880C4F80C80B5
:10133000C4F8108015DDB1EE408A04EB8707F7EEA4
:10134000008A143407EE905A0135B8EEE70A19F016
:10135000FDFEF0EE687AE8EE007AE4EC017ABC4239
:10136000F0D1338F0122DFED136A07EE903A124B72
:101370009FED120AF8EEE77A93ED017A736867EE53
:10138000A67A9A8286ED100A67EE877A87EE800A3F
:1013900019F05CFE0A4B86ED110A736502B0BDECD4
:1013A000028BBDE8F08700BFA69B443BCDCC4C3EF2
:1013B0009A99593F00007AC4281200200000C842C0
:1013C0003333733FF8B506680C460F68306839460A
:1013D00003F084F9256874682946206803F07EF9D3
:1013E0002946606803F07AF92946A06803F076F987
:1013F0002946E06803F072F92946204603F06EF9A9
:1014000039463046BDE8F84003F068B92DE9F04FA1
:10141000046885B02369E169276B01FB03F1256A44
:101420007A1CA668781805FB03759342616206EB87
:101430008000E56280ED000A2263A26204DD94ED83
:101440000D0A05B0BDE8F08F226841F294108F00BC
:1014500041F20611155A02F5885032F801800190C8
:1014600007EB850E019941F20C100297F719B1F8BC
:1014700000A000210397B644C2455746104421639B
:1014800020DA41F20411064602EB8A0C32F8019090
:101490004FEA890B6146B6EC017A65B170460022CD
:1014A00070ED017A0132F1EC016A67EEA77A95429C
:1014B000A6EEA77AF4D14F4406ED017ADC4430461B
:1014C000B845E7DC0026E268AAEB0505039906604B
:1014D0000298024401980580201DFFF7CDFB636848
:1014E00094ED157AD3ED077AB4EEE77AF1EE10FABF
:1014F00001D59B696363D4E9062301339342E36119
:1015000001DB0023E361236A94ED0D0A01339A4263
:10151000D8BF0023236205B0BDE8F08F036893EDC8
:101520000D0A7047036883ED150A704770B50D46C4
:10153000064628202DED028BB0EE408A03F02EF8EF
:1015400007EE905A306004468561F8EE677AF4EE53
:10155000C87AF1EE10FA56D4B5EEC08A0023F1EE47
:1015600010FA4CBFC36180ED078AA80003F05EF853
:101570003568DFED267A4FF07E5295ED061A00238E
:10158000B0EE670A2260C4ED037AB8EE411AC4EDEA
:10159000027A6060D4ED070AC4E9043302F00AFE5F
:1015A000D5ED047A85ED070AF8EE677AAA6937EE79
:1015B000C00AB5EEC00AF1EE10FA0AD507EE902A7D
:1015C000F8EE677A30EE270AB5EEC00AF1EE10FAAF
:1015D000F8D4FCEEC07A17EE903AF7EE007A07EEF8
:1015E000103A93426B61B8EE477A30EE470A77EED5
:1015F000C07A85ED080AC5ED097A01D100236B6137
:10160000BDEC028B70BDC0ED077AAEE700000000B4
:1016100010B50468606803F0B5F82046BDE81040D6
:1016200003F0B0B803689A6922B1920058680021AB
:1016300019F0E8BA704700BF03681A695968D3ED1A
:10164000007A986927EE800A10B401EB8204013217
:10165000824284ED000A1A6101D100221A615A699E
:1016600093ED097A01EB82040132D3ED087A94ED0F
:10167000000A904220EE070A83ED020A09D994ED90
:10168000017A5A61A7EE270A5DF8044B83ED020A3E
:10169000704791ED007A00225DF8044BA7EE270A0F
:1016A0005A6183ED020A704703681869D3ED007A26
:1016B0005A68411C27EE800A02EB800210B49C6934
:1016C00082ED000AA142196101D100221A615DF880
:1016D000044B704703685A695968501C93ED097AA6
:1016E00001EB8202D3ED087A92ED000A10B49C69F6
:1016F00020EE070AA04283ED020A09D292ED017A98
:101700005DF8044BA7EE270A586183ED020A704783
:1017100091ED007A00225DF8044BA7EE270A5A618A
:1017200083ED020A704700BF10B50468F0EE400A6E
:101730009FED1C0AD4ED067AB8EE671A02F03AFD66
:10174000D4ED047A84ED070AF8EE677AA26937EEE1
:10175000C00AB5EEC00AF1EE10FA0AD507EE902ADB
:10176000F8EE677A30EE270AB5EEC00AF1EE10FA0D
:10177000F8D4FCEEC07A17EE903AF7EE007A07EE56
:10178000103A93426361B8EE477A30EE470A77EE3B
:10179000C07A84ED080AC4ED097A01D1002363619F
:1017A000002010BD00000000036893ED070A704799
:1017B000036893ED020A704770B5054628200E466F
:1017C0002DED028BB0EE408A02F0E8FE0446B00038
:1017D0002C60666102F0E2FE2D68F7EE007A0023CD
:1017E00095ED051A0022F0EE480A6060B8EE411A45
:1017F0002261B0EE670AC4ED007AC4ED077AE360B7
:10180000A360236202F0D6FC85ED060ABDEC028BD4
:1018100070BD00BF10B50468606802F0B3FF2046D9
:10182000BDE8104002F0AEBFF8B5046821696268F7
:10183000D4ED007A636902EB8100013127EE800A62
:10184000994280ED000A216101D100212161D4ED8E
:10185000087A5E1EBDEEE77A17EE101AB8EEC72AB8
:101860004F1C01F1020C0E4402EB810137EEC22A3B
:10187000D1ED000AB7FBF3F003FB107002EB80011F
:10188000BCFBF3F591ED001A03FB15C5B6FBF3F1B4
:1018900003FB116302EB850502EB8302D5ED001A11
:1018A00092ED000A02F01CFDD4ED047AD4ED086A32
:1018B000F8EE677A94ED057A84ED020AB8EE477A7D
:1018C00077EEE67AF5EEC07AF1EE10FA06D577EE0D
:1018D000877AF5EEC07AF1EE10FAF8D4D4ED065A14
:1018E000B7EE005A77EEE57A87EEA56A76EE057ACE
:1018F00076EEA76AC4ED077AF4EEC76AF1EE10FA45
:1019000009DAB5EE400AC4ED086AF1EE10FA08BF34
:101910009FED060AF8BDB5EE400A00232362F1EE02
:1019200010FA08BF9FED010AF8BD00BF00000000DB
:1019300010B50468F0EE400AB7EE000AD4ED057A5F
:10194000B8EE671A02F036FC84ED060A10BD00BF3F
:101950000168B7EE002AD1ED047A4B69F8EE677A98
:10196000F0B437EEC00A30EE420AB5EEC00AF1EE2E
:1019700010FA0AD507EE903AF8EE677A30EE270AA9
:10198000B5EEC00AF1EE10FAF8D4FDEEC07A49685F
:101990005D1E17EE902AB8EEE72A561C971C1544D8
:1019A00001EB820230EE422AD2ED000AB6FBF3F0E0
:1019B00003FB106201EB8202B7FBF3F492ED001A15
:1019C00003FB1474B5FBF3F203FB125301EB840029
:1019D00001EB8301D0ED001A91ED000AF0BC02F09A
:1019E0007FBC00BFF8B50D4617460646182002F02A
:1019F000D5FD002FA5F10201306014BF0626002698
:101A00001E2904462BD9402D28D107EE905A256077
:101A1000B8EEE70A19F010FCBDEEC00A12491348EF
:101A200010EE103A2268013B334401EB830150F879
:101A30002330D1ED007A6360FDEEE77A17EE900A6D
:101A4000C4ED047A90FBF2F2C000626102F0A6FDE0
:101A50002369A060D80002F0A1FDE060F8BD044A4F
:101A6000CA40D307D1D4F9E7F45F1208240000205C
:101A70004540004010B50468A06802F083FEE068AD
:101A800002F080FE2046BDE8104002F07BBE00BFA1
:101A90000368F0B55A696FF04044986814444FEAFF
:101AA000840CD3E9003700EB0C0484ED000AF3B199
:101AB0009E0007EE903A331FB8EEE76A01EB060E80
:101AC0001F443B46E2B114460546DFED127A93ED22
:101AD000007A013CF5EC016A3344E6EE877AF6D1F0
:101AE00066EE277A043FE1EC017A8E45E9D1012ABE
:101AF00005D06246011DBDE8F04019F06AB8F0BD9E
:101B0000DFED047A043F66EE277AE1EC017A8E4538
:101B1000D7D1ECE70000000003686FF04042F0B45A
:101B2000D3E90307D3E900463A44234600EB820297
:101B300051F8045B013B42F8045BF9D17B1E00EBDA
:101B400084011A46B7B104469FED0C0A00E0013A41
:101B5000B6EC017AF4EC017AA7EE270A002AF6D156
:101B600033B1024651F8040B013B42F8040BF9D1A2
:101B7000F0BC70479FED010AF3E700BF00000000D2
:101B8000F8B5064600242E4D682002F007FD3060AF
:101B900000222C4B00211AA7D7E90067C0E90E45A7
:101BA00019A5D5E90045C0E90667C0E9084518A7A9
:101BB000D7E9006718A5D5E90045C0E90A67C0E97B
:101BC0000C4517A7D7E9006717A5D5E90045C0E977
:101BD0001623C0E9106700220023016114A7D7E98A
:101BE0000067C0E9124514A5D5E90045C0E91867AA
:101BF000C0E91445C0E90023C0E90223F8BD00BFD5
:101C000000000000004CBD4000000000004CCD4032
:101C100039B4C876BE9F9A3F1656E79EAF03D23CB2
:101C2000B1133BB1133B534084BCF146ABD2F33DFF
:101C3000A43330F2B226263F95D626E80B2E113E6D
:101C40000000F03F0000E03F006802F09BBD00BFD5
:101C5000B5EEC00A30B5F1EE10FA05684FF47A74AB
:101C6000CCBF012300234CBF012200229B1A07EEA8
:101C7000903A2DED108BB7EEC0EA83B0B8EEE7FBDB
:101C8000B0EE40DAB7EE00CBB0EE00AB95ED100B46
:101C900095ED129B9FED58BB2FEE000B20EE0E0B27
:101CA00019F042FD20EE499B95ED008B04E0013CCC
:101CB00038EE468B00F09D80B0EE480B19F034FDF5
:101CC00038EE0C6B38EE0A4BB0EE495B36EE063B55
:101CD000A0EE085B84EE037B25EE477BA0EE067B3F
:101CE00085EE076BB0EEC67BB4EECB7BF1EE10FA5F
:101CF000DDD595ED167B95ED045A28EE044B2EEEBE
:101D0000077B7DEE455A95ED186BB0EEE53A2EEE69
:101D100047EBB7EEC33A95ED147BA6EE04EBB4EEB9
:101D2000C73BF1EE10FA13D4B7EEE57A95ED026BEE
:101D30003EEE466B86EE070BB7EEC00B85ED04DA80
:101D400085ED008B85ED02EB03B0BDEC108B30BD53
:101D5000F6EE007A4FF47A7435EE0D5AB7EE00BB0A
:101D6000B0EE00AB25EE275A95ED100BB7EEC57A15
:101D70002FEE000B95ED129B8DED007B20EE070BF7
:101D800019F0D2FC20EE499B9FED1BCB95ED008B0B
:101D900003E0013C38EE468B1CD0B0EE480B19F046
:101DA000C3FC38EE0B6B38EE0A5BB0EE494B36EEF7
:101DB000063BA0EE084B85EE037B24EE477BA0EEAE
:101DC000067B84EE076BB0EEC67BB4EECC7BF1EE07
:101DD00010FADED595ED0A6B95ED0E7B2FEE06FB26
:101DE0009DED006B27EE467BAFEE087BB7EEC70B91
:101DF000A4E738EE0A4B7CE7956479E17FFDA53DC9
:101E000038B505461C202DED028B02F0C7FB9FED77
:101E1000138A04464FF07A5304220C202C6022616E
:101E200084ED028AE360236002F0B8FBD4ED027A0D
:101E30009FED0B7A4FF07E51C7EE886ADFED097A8D
:101E400000230022A061016042608360BDEC028B30
:101E5000E6EE877AC4ED057A38BD00BF00409C45A8
:101E60003333333F9A99993E10B50468A06902F064
:101E700089FC2046BDE8104002F084BCDFED1E7AEC
:101E800020EE270A10B5BDEEC00A0468D4ED027A30
:101E9000B8EEC00A2069C00580EE270A02F080F97A
:101EA000B7EE001AF0EE400ABFEE000A02F082F927
:101EB000D4ED030A02F05EF9A3699A68D3ED007AC3
:101EC00007EE102AB8EE477AB4EEE77AF1EE10FA90
:101ED00008DDD4ED057A012283ED010A9A6020EE37
:101EE000270A10BDD4ED057A013293ED010A9A60FC
:101EF00020EE270A10BD00BF00409C45F2EE007A9C
:101F0000036820EE270ABCEEC00A83ED040A70477E
:101F100010B5F0EE400A9FED0E0AB7EE001A046805
:101F200002F048F9DFED0B6ADFED0B7A9FED0B7ADB
:101F3000E0EE267A9FED0A6AC7EEA65AC4ED027A51
:101F4000F0EE477AE5EE867AC4ED057A10BD00BF63
:101F50000000000000409C450AD7233C9A99993E16
:101F60003333333FB0EEC00A036883ED030A704792
:101F7000F7EE007A036883ED000AB4EEE70AF1EEAB
:101F800010FA00D97047B5EEC00AF1EE10FAF9DB8D
:101F900087EE807A9B6983ED007A704770B50646BC
:101FA00014200D462DED048BF0EE408AB0EE609AC1
:101FB000B0EE418A02F0F2FA002330600446B0EE3F
:101FC000490AC36018EE903A40F8103BFEF762FDF4
:101FD00084ED018AA560BDEC048B70BD10B504686A
:101FE00004F11000FEF76EFD2046BDE8104002F03F
:101FF000C9BB00BFF8B507460E4614201168154648
:102000002DED048BF0EE408AB0EE609AB0EE418A7E
:1020100002F02CFA002338600446B0EE490AC3608F
:1020200018EE903A294640F8103BFEF74FFD84ED3C
:10203000018AA660BDEC048BF8BD00BF38B504680A
:102040000D6804F11000FEF759FD29462046BDE851
:10205000384002F043BB00BF10B504682DED028B81
:1020600004F11000B0EE408AFEF74CFDD4ED007A8A
:10207000A36870EE677A33B9F5EEC07AF1EE10FA24
:1020800048BFDFED077AB7EE000A94ED017AA7EEBC
:10209000670A20EE080ABDEC028B84ED030A10BD2E
:1020A00000000000036883ED000A704710B5046863
:1020B000606A02F067FB206A02F064FBE06902F0EC
:1020C00061FBA06902F05EFB606902F05BFB2046E9
:1020D000BDE8104002F056BB394BDFED3A7A93ED84
:1020E000007AB4EEE77A70B5F1EE10FA06682DEDDD
:1020F000048B57D4DFED347AB4EEE77AF1EE10FAC0
:1021000054DDB0EE677A40F21F6396ED036ADFEDAF
:102110002F6ADFED2F7A3169E6EE267A326B8B4239
:10212000A8BF0B469A4267EE877AFDEEE77AC6EDC6
:102130000D7A22D007EE903A9FED267A002B33637A
:10214000F8EEE77A87EE279A17DDF4699FED228A89
:1021500004EB8305B7EE000AF6EE008A01E018F002
:102160002DFFF0EE687A38EE098AE0EE687AB0EE7C
:10217000480AE4EC017AA542F1D1F6EE007A96ED38
:10218000006AD6ED016A66EE277A36EEA67A67EE29
:10219000867A27EE267ABDEC048BC6ED0F7A86EDA3
:1021A000107A70BDB0EE677A8223AEE7DFED0B7A6E
:1021B00067EE277AFDEEE77A17EE903AA5E700BFC3
:1021C000281200200000FA450080BB4717B7D1391C
:1021D00017B7D138DB0FC940000000007EC6853C30
:1021E000F8B50646702000240F4602F0D7F94FF0EC
:1021F0007C5205464FF07E5330600761B8002A607C
:10220000EB606C60AC6002F0C9F92B696861980002
:1022100002F0C4F92B69A861980002F0BFF92B699C
:10222000E861980002F0BAF92B692862980002F080
:10223000B5F968623046FFF74FFF32680023156931
:1022400094629D425464D466946654661466D46560
:10225000946554651465D4649464D362936310DD0B
:10226000116A2346546A01EB8505D2E9050241F85B
:10227000043BA94244F8043B40F8043B42F8043BC9
:10228000F5D1F8BD2DE9F04FB1F100082DED048B2B
:10229000ADF54B7DD0ED008A01937DDB08F10104A3
:1022A000002107469246A40066A8224618F0AAFC20
:1022B0002246002102A818F0A5FCB8F1000F6BDD42
:1022C000D7ED017A6FF007099FED3D9A0AF10405F9
:1022D000F1EE677A0DF10C0BA9EB070907F1080481
:1022E0000126CAED017AF0EEE87AF4EEC97AF1EE51
:1022F00010FA46D4D5ED007A012EC7EEA86AC5EDD6
:10230000006AEBEC016A0FD067A966AB03A803EB88
:1023100086028C4632ED017AF1EC017A6245E6EEF6
:10232000877AE0EC017AF5D1F7EE007A0136B04514
:10233000E6EEE67A68EEA78A2EDB94ED008A04F1D9
:10234000040A03A967A8B1EE488A09EB0A0218EE4D
:10235000103A45F8043F18F031FC391D03AA74ED1A
:10236000017AB2EC017AA142A7EE678A85ED008A74
:10237000F5D1F0EEE87A5446F4EEC97AF1EE10FAAF
:10238000B8D59FED108A019B83ED008A0DF54B7D3A
:10239000BDEC048BBDE8F08FDFED097AF4EEE78A3F
:1023A000F1EE10FAEDD4F5EE408AB1EEE88AF1EEE6
:1023B00010FAE8D5B0EE680A19F0A2FCE3E700BF16
:1023C00008E53C1E000000002DE9F0471D1EADF59C
:1023D000976D04460F46164640DB6FEA050A00EB90
:1023E000820184460DF108090DF5CC7E9244104619
:1023F0004FF0000800284EF8048B49F8048B0DDDDF
:1024000062462346DFED4A7AF3EC016AB2EC017AC8
:102410008B42E6EE877AF7D14EED017A01380CF166
:10242000040C04395045E5D1DDED667ADFED416AF3
:102430009FED417A67EEA67AF4EEC77ACDED667A23
:10244000F1EE10FA4DD5002E47DDB20020460021F6
:102450000DF5976DBDE8F04718F0D4BBDDED667A59
:10246000DFED346A9FED347A67EEA67AF4EEC77A30
:10247000CDED667AF1EE10FAE5D40DF104090DF513
:102480004A7866A829464B464246FFF7FBFE002ED7
:1024900023DDA80002AB07EB860699ED006A043045
:1024A000CBA980441844B7EC017A002D27EE067AB8
:1024B0000DDD0246434673ED016A52ED027A994200
:1024C000A6EEE77AE6EE877A62ED017AF3D1BE42B4
:1024D0008DED027AA4EC017AE5D10DF5976DBDE89A
:1024E000F0870DF54A780DF1040966A829464B4698
:1024F0004246FFF7C7FECBAA43469FED107A02EB98
:102500008502DFED0F6A03E003ED017A9A42BED047
:10251000F3EC017AF4EEC77AF1EE10FAF4DCF4EEA3
:10252000E67AF1EE10FA48BF43ED016AEEE700BF2C
:1025300000000000C520803FACC5273752B87E3F61
:1025400052B87EBF2DE9F04704689FED885A94ED9C
:10255000167ADFED877AD4ED126AD4ED144AE0EEF4
:10256000276AD4ED135AE7EE054A94ED156AE36A3B
:10257000A56B226B2DED048BA4EEC57A84ED160AB3
:10258000A6EEE70AC4ED125A84ED146A94ED0A5AD5
:1025900094ED118A84ED157A84ED130A002B40F036
:1025A0008980F0EE407A0123E362D4ED1B6AF0EEFD
:1025B000E55ADFED6F2A94ED170A9FED6C3AD4EDE2
:1025C000193AA8EE220A84ED0A5AB0EE485AE6EE0D
:1025D000833A9FED682A94ED184AF4EEC25AD4ED7E
:1025E0001A4AA563A0EE625A84ED118AF1EE10FA40
:1025F00084ED174AE3EEC36A84ED1B8A30EE230AAA
:10260000C4ED194A84ED185AC4ED1A6A01D50023A5
:10261000A364F0EEE77ADFED575AF4EEE57AF1EED7
:1026200010FA01D50023E364B0EEC66ADFED517AFB
:10263000B4EEE76AF1EE10FA01D500232365B0EE9F
:10264000C77ADFED4C7AB4EEE77AF1EE10FA01D5F5
:1026500000236365B0EEC44ADFED467AB4EEE74A84
:10266000F1EE10FA01D50023E365B0EEC55ADFEDB7
:10267000417AB4EEE75AF1EE10FA01D50023236651
:10268000F0EEE44ADFED3B7AF4EEE74AF1EE10FAC1
:1026900001D500236366F0EEE66ADFED367AF4EEEC
:1026A000E76AF1EE10FA01D50023A366BDEC048BB6
:1026B000BDE8F087002A16464FEA85036169B8BF76
:1026C000561C76EEA46A01EB030E4FF0000C05EBEE
:1026D000660070EEC58AC4F82CC0013510EE908AF1
:1026E000AA4290FBF2F602FB1606E0694FEA860763
:1026F00000EB0309A06900EB070A206ACAED006A33
:102700000344CEED006A99ED009A93ED008A68EEDD
:10271000897A29EE088AC3ED007A20DDF7EE007A87
:10272000606A0136074477EEC97A964297ED007ADF
:1027300028EEA75AA7EE278A87ED005A0ADA05EE97
:10274000108AD4ED125AD4ED137A94ED146A94EDF4
:10275000157A2AE7636BA169FFF736FEEFE7636B33
:102760006546FFF731FE226BD8E700BFB81E453F34
:102770009A99993EFFE6DB2E0068F0B49FB2068876
:102780002DED028B3B46478026B9C4690D6804F5E0
:102790008044256053B1C46901EB830C04EB8604CB
:1027A00051F8045B614544F8045BF9D1F7EE004A47
:1027B00090ED011A06F58051D0ED033A90ED045AE0
:1027C000B4EEE41A07EE901A90ED067AF8EEE75AA6
:1027D00090ED053AF1EE10FAD0ED027A40F3B280B6
:1027E000DFEDA06A61EE010A71EE641A31EE661A3D
:1027F00081EE200A20EE231A71EE016A36EEA36AFA
:10280000B4EE676AF1EE10FA18D5B5EEC07AF1EEC3
:1028100010FA13D577EEE66AB0EE635A01E0B0EE37
:10282000475A35EE057AB4EEE67AF1EE10FAF6D4B0
:10283000B7EE007A77EEC57A33EEC73A80EE838A38
:10284000002B56D002EB8305C469F7EE002AF1EEA7
:10285000638AB4EEE71AF1EE10FA09DDB5EEC07A3C
:10286000F1EE10FA5ED4F5EE407AF1EE10FA59D49A
:1028700035EEE76AB5EEC07AFDEEC66AF1EE10FA03
:1028800016EE903AF8EEE66AC3F30B0376EE666A4C
:1028900004EB8303D3ED004A93ED014A34EE644A1E
:1028A000E6EE844A35DD36EE456A32EEC72A75EE2D
:1028B000A25AFDEEC66A77EEE17A16EE903AF8EE8D
:1028C000E66AC3F30B0136EE666A04EB8101D1EDD3
:1028D000006A91ED014A34EE664AE6EE046A66EE5D
:1028E000876A37EE487AE4EE826AE2EC016AAA422D
:1028F000AFD1C0ED027A80ED045A80ED053A80ED4B
:10290000067A3E44BDEC028BC6F30B060680F0BC93
:102910007047E2EC014AAA4275EEA25A77EEE17ADC
:1029200097D1E6E787EE803AB4EEE23AF1EE10FA9C
:102930007ED480EE838A77EEA37AB0EE685AB7EE43
:10294000007A95E7F6EE006A34EEC12AB4EEE61A94
:10295000F1EE10FA31FE021AC1EE030A002B4DD03F
:1029600002EB8303C469F4EEE37AF1EE10FA04DDBE
:10297000B5EEC07AF1EE10FA5FD935EEE76AB5EE42
:10298000C07AFDEEC66AF1EE10FA16EE901AF8EE75
:10299000E66AC1F30B0176EE666A04EB810191ED04
:1029A000004AD1ED012A72EEC42AA6EEA24A2EDD1B
:1029B00036EE456A74EEC71A75EEA45AFDEEC66A85
:1029C00077EE827A16EE901AF8EEE66AC1F30B0102
:1029D00036EE666A04EB8101D1ED006AD1ED012A81
:1029E00072EEE62AE6EE226A66EE876A37EE607AD3
:1029F000E4EE216AE2EC016A9A42B4D180ED045A15
:102A0000C0ED027A80ED067A80ED053A79E7A2EC16
:102A1000014A9A4275EEA45A77EE827AA3D180EDEC
:102A2000045AC0ED027A80ED067A80ED053A68E737
:102A3000B7EE003AB0EE608A7DE7B0EE635A01E08F
:102A4000B0EE475A35EE057AB4EEE77AF1EE10FAB9
:102A5000F6D433EEE43A77EEC57AB7EE007AC1EEFB
:102A6000030A8AE7A4707D3F2DE9F04F2DED028B1C
:102A700083B0054689463820DDF8388017469A46E7
:102A8000D8F80060314601F0F1FC04463146B80048
:102A90002C60C4F83490C4E905A701F02DFD636BE8
:102AA0003146A060980001F027FD14224FF040133A
:102AB000DFED516A84F820202D68E361AB8B9FED38
:102AC0004F0A07EE903A4E4BE060F8EEE77A93ED4E
:102AD000017A85ED0A0A67EEA67A67EE877A87EEB5
:102AE000800A18F0B3FA0023606B314685ED0B0ABB
:102AF0008000236301F000FD636B60603146980045
:102B000001F0FAFC636B60623146980001F0F4FC5E
:102B1000636B2061002B0CDD0025A0693146E7685E
:102B2000800001F0E9FC636B47F825000135AB42FA
:102B3000F3DCE2682046A3691268A168CDF804803E
:102B400065690095FEF772FB636B002B4EDD002775
:102B50009FED2C8ADFED2C8AE3683420D8F8001032
:102B60004FF07E5A53F82790D4F804B0A66901F0CC
:102B7000C3FC23680546002201211B6920204BF875
:102B800027500F44D8F800B06E612B61C5F80C9047
:102B9000A946E9615946AC60C5F828A096FBF3F652
:102BA000C5E90822AE6101F0A7FC0646594644F289
:102BB000400049F8046BC6F804A001F09DFC134ADC
:102BC0004FF48003F0614146B2613360484686EDC0
:102BD000038AB0EE680A86ED028A01F047F9636B5A
:102BE0004FF080412A68BB425160B5DC03B0BDECB8
:102BF000028BBDE8F08F00BF00007AC40000C8421D
:102C0000281200200000804200002042000080BF07
:102C100010B5034C82B00094FFF726FF02B010BD40
:102C2000241200202DE9F84F05688A46D1F800B03B
:102C30002846FEF7C7FB6B6B002B23DD00246B6877
:102C4000DAF8006053F824803146474657F8049B71
:102C5000D9F81C0001F042FD3146484601F03EFD26
:102C60005146384601F020F93146404601F036FD24
:102C7000EB68594653F82400013401F02FFD6B6BCB
:102C8000A342DCDC5946286901F028FD5946686AF0
:102C900001F024FD5946686801F020FD5946A868F6
:102CA00001F01CFD5946E86801F018FD5946284618
:102CB000BDE8F84F01F012BD0149FFF7B3BF00BFF7
:102CC000241200202DE9F04307682DED048B3846CF
:102CD00083B0FEF79BFB7B6B87ED0C0A002B40F368
:102CE000888000259FED5B9ADFED5B9A05E07B6BAA
:102CF000013586ED008AAB427BDD7B683E6953F887
:102D0000254006EB8506A268201DE3681268D16A9B
:102D1000019203EB8103D2F8248093ED000A01F0C5
:102D2000D7F8019A2369B0EE408A926A9A42DEDBB4
:102D300001A8FEF7F3FBA368F0EE408AD3F80090F9
:102D40004846FDF791FFF7EE007AB4EEE70AF1EEA0
:102D500010FA12DBD9ED127AB4EEE70AC9ED137A54
:102D6000F1EE10FA03DC94ED0C0A27EE800A70EE07
:102D7000677A89ED120AC9ED147A99F83C30019905
:102D80002268002B3BD0013BDBB289F83C30B3B367
:102D90005388B2EE007A4FEA88088968C3F58053F9
:102DA00020464144013507EE903A2369F8EEE77A70
:102DB00067EE897AF4EEE78AF1EE10FA77FEA87AE8
:102DC000F4EEC77AF1EE10FAC8BFC2ED037AD4ED83
:102DD0000A7AF5EEC07AF1EE10FA88BFC2ED017AF8
:102DE000E2684244FFF7C8FC7B6B86ED008AAB4289
:102DF00083DC386903B0BDEC048BBDE8F083D9ED0A
:102E0000127AF4EEE97AF1EE10FAC1DDF1EE087A09
:102E100099ED147AB4EEE77AF1EE10FAB8DD4B8F43
:102E200007EE903A0523F8EE677A81F83C3092ED90
:102E3000027AF4EEC77AF1EE10FAA9D537EE677A86
:102E40004FF07E53C2ED027AC2ED057A82ED047A2C
:102E500093619DE7CDCC4C3F000070420268536AFD
:102E6000526803EB810352F8212083ED000A82EDC2
:102E70000A0A70472DE9F04F2DED028B83B005460D
:102E800089463820DDF8388017469A46D8F8006021
:102E9000314601F0EBFA04463146B8002C60C4F824
:102EA0003490C4E905A701F0E1FA636B3146A060F4
:102EB000980001F0DBFA14224FF04013DFED516A65
:102EC00084F820202D68E361AB8B9FED4F0A07EE5D
:102ED000903A4E4BE060F8EEE77A93ED017A85ED9B
:102EE0000A0A67EEA67A67EE877A87EE800A18F0FC
:102EF000ADF8606B314685ED0B0A800001F0B6FA43
:102F0000636B60603146980001F0B0FA636B6062F9
:102F10003146980001F0AAFA636B2061002B0CDDAA
:102F20000025A0693146E768800001F09FFA636BD5
:102F300047F825000135AB42F3DCE2682046A3697F
:102F40001268A168CDF8048065690095FEF76EF9F6
:102F5000636B002B4EDD00279FED2D8ADFED2D8A60
:102F6000E3683420D8F800104FF07E5A53F82790C9
:102F7000D4F804B0A66901F0BFFA23680546002220
:102F800001211B6920204BF827500F44D8F800B0CE
:102F90006E612B61C5F80C90A946E9615946AC6099
:102FA000C5F828A096FBF3F6C5E90822AE6101F04A
:102FB000A3FA0646594644F2400049F8046BC6F8A5
:102FC00004A001F099FA144A4FF48003F0614146DD
:102FD000B2613360484686ED038AB0EE680A86ED3A
:102FE000028A00F043FF636B4FF080412A68BB42C6
:102FF0005160B5DC0023236303B0BDEC028BBDE858
:10300000F08F00BF00007AC40000C84228120020E0
:103010000000804200002042000080BF10B5034C39
:1030200082B00094FFF726FF02B010BD24120020EA
:103030002DE9F84F05688A46D1F800B02846FEF71A
:10304000C1F96B6B002B23DD00246B68DAF800609C
:1030500053F824803146474657F8049BD9F81C00A2
:1030600001F03CFB3146484601F038FB51463846FA
:1030700000F01AFF3146404601F030FBEB6859463C
:1030800053F82400013401F029FB6B6BA342DCDC14
:103090005946286901F022FB5946686A01F01EFB77
:1030A0005946686801F01AFB5946A86801F016FBFA
:1030B0005946E86801F012FB59462846BDE8F84F2A
:1030C00001F00CBB0149FFF7B3BF00BF2412002081
:1030D0002DE9F04706682DED068B304682B0FEF7ED
:1030E00095F9DFED707A736BB4EEE70AF1EE10FA42
:1030F00048BF86ED0C0A002B40F39B800025DFEDD6
:103100006A9ADFF8AC819FED69AA06E0736B01351E
:10311000C7ED008AAB4240F38C807168AB00726AE5
:1031200051F82540376902EB030CA168201DE268C5
:103130001F4409689CED008ACB6A019102EB83026F
:10314000D1F8249092ED000A00F0C2FE019A2369A2
:10315000F0EE408A926A9A42D8DB01A8FEF7DEF9C7
:10316000A368B0EE409AD3F800A05046FDF77CFD6E
:10317000F7EE007AB4EEE70AF1EE10FA12DBDAEDC0
:10318000127AB4EEE70ACAED137AF1EE10FA03DC14
:1031900094ED0C0A27EE800A70EE677A8AED120A27
:1031A000CAED147A9AF83C302268002B4ED0013BCD
:1031B000DBB28AF83C30002B48D001995388B2EE3C
:1031C000007AC3F5805307EE903AF8EEE77A67EE9F
:1031D000A97AB4EEE79AF1EE10FA77FE897AF4EE66
:1031E000C77AF1EE10FAB5EE409AC8BFC2ED037A85
:1031F000F1EE10FA23D028EE098AD8ED017A28EEF4
:10320000278AB5EEC08A84ED0A8AF1EE10FA1AD840
:103210004FEA89098968E2682046236949444A449B
:103220000135FFF7A9FA736BC7ED008AAB423FF790
:1032300074AF306902B0BDEC068BBDE8F087B7EE25
:10324000008A84ED0A8A82ED018AE1E7DAED127ADA
:10325000F4EECA7AF1EE10FAAFDDF1EE087A9AEDEB
:10326000147A0199B4EEE77AF1EE10FAA6DD488FF0
:10327000052307EE900A81F83C3092ED027AF8EED1
:10328000677AF4EEC77AF1EE10FA97D537EE677ADF
:103290004FF07E53C2ED027AC2ED057A82ED047AD8
:1032A00093618BE700007A44CDCC4C3F0000704224
:1032B0002812002003685B6A03EB810181ED000A9C
:1032C000704700BF0068FEF72DB900BF036893ED9B
:1032D0000C0A70472DE9F84315688846814664203A
:1032E00029461646574F2DED028B01F0BFF80446D4
:1032F000C9F8000029464FEA8800C4F8008001F0B0
:10330000FBF82368E0602946980001F0F5F823688F
:1033100020612946980001F0EFF823686061294692
:10332000980001F0E9F82368A0612946980001F0AF
:10333000E3F82368E0612946980001F0DDF823688E
:1033400020622946980001F0D7F823686062294678
:10335000980001F0D1F823682946A063980001F095
:10336000CBF8F2EE047AD7ED010A606360EEA70AAB
:103370009FED350A17F0E0FF97ED007ADFED337A25
:1033800084ED010A27EE270A17F046FDB5EE400A44
:10339000B1EEC08AF1EE10FA51D4DFED2D6AB2EE33
:1033A000047ADFED2C7A0023D7ED010A4FF07E5529
:1033B000E8EE267AA36260EE870AE3629FED220AB6
:1033C000F1EE677AC4ED027A17F0B6FFD7ED010A85
:1033D00084ED0C0AE5639FED1C0A17F0ADFF002396
:1033E00084ED100A3146636404F15400E564B3EEE1
:1033F000040A256500F03AFD314604F15800B3EEA9
:10340000040A00F033FD324604F15C000121B4EE01
:10341000001ADFED110A9FED110AFEF7EBFD3246AF
:1034200004F160000121B4EE001ADFED0B0A9FEDFC
:103430000B0ABDEC028BBDE8F843FEF7DBBD18F0CC
:103440005FFCAAE7281200206F12833AE1D1863D83
:1034500003095A3FCA3244BE0AD7A33BCDCC4C3FE6
:1034600070B504680E460D68E068294601F036F92B
:103470002946206901F032F92946606901F02EF9E8
:103480002946A06901F02AF92946E06901F026F9E8
:103490002946206A01F022F92946606A01F01EF9E6
:1034A0002946A06B01F01AF92946606B01F016F964
:1034B000314604F1540000F0F7FC314604F15800A5
:1034C00000F0F2FC314604F15C00FEF7B7FD314636
:1034D00004F16000FEF7B2FD29462046BDE87040C9
:1034E00001F0FCB870B5066806F15C00FEF7B4FDAB
:1034F000D6ED137A06F1540020EE270A00F0E8FC1E
:10350000D6ED007AF7EE005AD6ED0A6AF8EEE73A01
:1035100096ED015A86ED0A0A70EE666A75EEC55A96
:1035200096ED023AF5EEC03AF1EE10FA4BDDB0EE50
:10353000660A336A75690024726ADFED242AD6E9C7
:103540000310766BD3ED007A20EE007A013467EE3B
:10355000857A06EE104AE7EE257AF8EEC64AF4EED2
:10356000E34AE3EC017AD5ED007AF1EE10FA90ED42
:10357000007A76EEE77AA7EE837AA5EC017A67EE19
:10358000007AE0EC016AD1ED006A66EE856AE7EE4A
:10359000A56AE1EC016A13ED016AD2ED007A36EE1C
:1035A000226A67EE857A86EE864AF0EE476AE5EE95
:1035B000847AE2EC017AE7EEC06AE6EC017AA7EEE3
:1035C000670ABFD470BDB0EE660A70BDBD378635E0
:1035D000F8B50468B7EE007AD4ED027A94ED125A89
:1035E00037EE876A94ED0C3A77EE676AD4ED007A8D
:1035F00026EE056AF8EEE75AC6EE267AF5EEC05AD0
:103600002DED028BF1EE10FA77EEC76A77EE877A2E
:1036100086EEA75A40F3EE80DFED7A6A0023E56973
:10362000A069F0EE667AD4E90D12B5EC016A0133B7
:10363000B0EC017A76EEC66A06EE103AF1EC014A79
:10364000B8EEC64AA6EE857AB4EEE54AF1EE10FA77
:1036500027EE246AA4EEE77AA2EC016A77EEC67A36
:10366000F0EE476AE1D4F1EE677AB7EE007A35EE14
:10367000C77ABDEEC77A17EE107A002FC0F2B2807B
:10368000A16B7B1C01EB830232ED017A914277EE54
:10369000877AF9D1F5EEC05AF1EE10FA40F3AF8017
:1036A000B7EE006A0846626B0023B0EE467AD4E9B2
:1036B0000656F6EC014A0133F5EC016A36EE646A0F
:1036C00004EE903AB2EC014AF8EEE43AE6EE056A0E
:1036D000F4EEE53AF1EE10FA66EE844AE4EE476A5B
:1036E000E0EC014A37EE647AB0EE666AE1D4002F6E
:1036F000B1EE477A08DB7B1C01EB830373ED016AB3
:10370000994237EE267AF9D1F7EE006A36EEC77A9B
:1037100037EE877AB5EE407AF1EE10FA5CD0F0EE33
:10372000006AE0EE267A87EE870AF5EEC05AF1EEDF
:1037300010FA25DDB0EE406AE169F0EE406AA26958
:10374000606B002391ED007A0133D2ED007A36EE02
:10375000477A04EE903AF8EEE44AE7EE057AF4EEA2
:10376000E54AF1EE10FAE1EC017AA2EC016AB0EE62
:10377000676AB0EC017AA7EE666AE7EEC76AE1D441
:10378000F6EE007A94ED0B7A94ED0F8AA7EE030A19
:10379000B4EEE78AF1EE10FA84ED0B0A1FDD78EE45
:1037A000677A27EE800A30EE000A17F065FFF7EE21
:1037B000007A94ED107A04F1580077EEC77AE8EEBB
:1037C000077AC4ED0F7A00F083FBD4ED147ABDECD8
:1037D000028B20EE270AF8BD9FED0A0AA5E79FEDB0
:1037E000090AE4E7F5EEC05AF1EE10FA05DCBFEE87
:1037F000007A89E7DFED047A37E7A16B50E7BFEE87
:10380000007A79E70000000000000080036883ED83
:10381000120A704710B5F0EE400A9FED0D1AB7EE90
:10382000000A046800F0C6FCB5EE400A84ED130AF5
:10383000F1EE10FA04D1F7EE007AC4ED147A10BD5F
:10384000B7EE007AC7EE007AC4ED147A10BD00BF5F
:103850000000C84210B52DED028B82B004461C203A
:10386000B0EE408A019100F099FE0199F7EE007ADE
:10387000174B07EE101ADFED176A9FED176AF8EE87
:10388000C75A93ED007A206027EE267A816180ED99
:10389000036A80ED046AC7EE876A66EEA57AC0ED1A
:1038A000016AF4EEC87AC0ED027AF1EE10FA77FE02
:1038B000887A86EE277AC0ED057A67EE267A67EE7B
:1038C000A57AC0ED007A02B0BDEC028B10BD00BF3E
:1038D000281200206F12833A00000000006800F0F8
:1038E00051BF00BF38B50C46054611681C202DEDB0
:1038F000028BB0EE408A00F0B9FD07EE104A174B7C
:10390000DFED176AF7EE007AF8EEC75A93ED007A0A
:103910009FED146A27EE267A2860846180ED036AA1
:10392000C7EE876A80ED046A66EEA57AC0ED016A8B
:10393000F4EEC87AC0ED027AF1EE10FA77FE887ADA
:1039400086EE277AC0ED057ABDEC028B67EE267A0B
:1039500067EEA57AC0ED007A38BD00BF28120020BE
:103960006F12833A000000000968006800F0B6BEDC
:10397000036893ED027AD3ED037AB4EEC07A93ED47
:10398000046AD3ED015A36EE676AD3ED067AF1EE9A
:1039900010FAF8EEE76A37FE007AC6EE077A83ED92
:1039A000057A67EEA57A67EEA67AC3ED007A7047CE
:1039B000036893ED037A93ED056A30EE477AD3ED11
:1039C000016A83ED040AC7EE067A93ED067AB8EE33
:1039D000C77A67EEA67A67EE877AC3ED007A7047FA
:1039E000036893ED047A93ED056A37EE407AD3EDE0
:1039F000016A83ED030AC7EE067A93ED067AB8EE04
:103A0000C77A67EEA67A67EE877AC3ED007A7047C9
:103A1000036893ED030A93ED007AD3ED047A37EE51
:103A2000000AB4EEE70A83ED030AF1EE10FA0BDBAD
:103A3000B5EEC07AF1EE10FA06DDB0EE670A0022AC
:103A4000C3ED037A1A607047B4EEE70AF1EE10FA9C
:103A5000F9D8B5EEC07AF1EE10FAEED4704700BF97
:103A6000036893ED030A704710B52DED028BB0EE9D
:103A7000608A04461020F0EE408A00F08FFDF7EED9
:103A8000007AB5EEC08A2060C0ED028AC0ED038ADC
:103A9000F1EE10FA0FD4B4EEE78AF1EE10FA13DD6E
:103AA000B0EE678ADFED0A7A80ED008AC0ED017A18
:103AB000BDEC028B10BD9FED068AC0ED017A80ED52
:103AC000008ABDEC028B10BD77EEC87AECE700BF30
:103AD00000000000006800F055BE00BFB5EEC00A4F
:103AE0000368F7EE007AF1EE10FA14D4B4EEE70AA8
:103AF000F1EE10FA08DDB0EE670ADFED0A7AC3EDE9
:103B0000017A83ED000A704777EEC07A83ED000AF0
:103B1000C3ED017A70479FED030AC3ED017A83ED8F
:103B2000000A704700000000036883ED030A704735
:103B30000368D3ED027A93ED010A93ED007A20EE4B
:103B4000270AD3ED037AA7EE270A83ED020A70470E
:103B500070B52DED028BB0EE408A05460C200E4666
:103B6000084C00F01BFD00220346B0EE480A286016
:103B700031461C6004309A60BDEC028BBDE8704099
:103B8000FDF7D4BC3333333F10B50468201DFDF777
:103B90003FFD2046BDE8104000F0F4BD0068043051
:103BA000FDF7C2BD036883ED000A704710B50468D5
:103BB000D4ED027A201D94ED007A2DED028BB0EE4B
:103BC000408AA7EE670AFDF737FDD4ED007AA7EE2D
:103BD000880ABDEC028B84ED020A10BD38B505469B
:103BE0001C202DED048BF0EE408A00F0D7FC124B28
:103BF000B7EE008A9FED119A0446D3ED030AB0EEAA
:103C0000481A286068EEA00A80ED008A80ED018ADB
:103C1000B0EE490AC0ED030A00F0CCFA38EE408A53
:103C200084ED059A84ED069A84ED028A84ED030AF8
:103C3000BDEC048B38BD00BF28120020000000003E
:103C4000006800F09FBD00BF0B4BB7EE001AD3ED2C
:103C5000030A60EE200A9FED090A10B50468C4ED5E
:103C6000030A00F0A7FAF7EE007A84ED030A37EEB4
:103C7000C00A84ED020A10BD2812002000000000D6
:103C8000036893ED066A93ED007AD3ED027A20EE95
:103C9000077AD3ED036A27EE860A83ED057AA6EE4E
:103CA000870A83ED060A704770B5064628200D4640
:103CB0002DED028BB0EE408AF0EE608A00F06EFCD3
:103CC0009FED170A0023174A044628EE008A92ED5A
:103CD000010A306028EE000A0570C360036117F026
:103CE0009DFCF7EE007A84ED050A87EEA87ABDEC1C
:103CF000028B70EE076A84ED067AB0EE677AA0EE6A
:103D0000267AF0EE476A87EEA67A60EE077A84EDAF
:103D1000077A20EE270AC4ED087A84ED090A70BDFF
:103D2000DB0F494028120020006800F02BBD00BFC7
:103D30000368B0EE005AD3ED046A93ED036AB0EE67
:103D4000667AD3ED087A70EE665A93ED074AD3EDA2
:103D5000094AA6EE277A1A7867EEA57A012AE4EED8
:103D6000067AA4EEA57A97EE856A77EE075A75EE85
:103D7000E66A83ED036AC3ED046A08D0022A09D01B
:103D80006AB1032A14D0042A19D09FED107AB0EE3C
:103D9000470A7047B0EE677AB0EE470A7047D3ED36
:103DA000066AA6EEE70A30EE477AB0EE470A704799
:103DB00093ED067AA7EE670AB0EE407AE7E793ED57
:103DC000067AA7EE670A30EE657AE0E700000000A9
:103DD000DFED137A134B20EE270AD3ED017A10B5ED
:103DE00020EE270A046817F019FCF7EE006AD4EDFC
:103DF000067A84ED050A70EE277AB0EE667AA0EEB8
:103E0000277AF0EE477A86EEA77A60EE077A84ED9D
:103E1000077A20EE270AC4ED087A84ED090A10BD5E
:103E2000DB0F49402812002010B5044610202DED6C
:103E3000028BB0EE408A00F0B1FB094AF7EE007A3F
:103E4000002392ED037A2060E7EE487A80ED038A42
:103E500043600360BDEC028BC0ED027A10BD00BF71
:103E600028120020006800F08DBC00BF10B5096862
:103E7000044610202DED028BB0EE408A00F03CFB92
:103E8000084AF7EE007A002392ED037A2060E7EE0D
:103E9000487A80ED038A43600360BDEC028BC0ED7D
:103EA000027A10BD281200200968006800F016BCD4
:103EB000064AF7EE007A036892ED037A83ED030A6F
:103EC000E7EE407AC3ED027A704700BF2812002067
:103ED0000368D3ED007A93ED017A70EE677AD3ED43
:103EE000026A83ED000AE6EE877AB0EE670AC3ED58
:103EF000017A70476FF04043B0EE005AB4EE007A9A
:103F00000B4400EB8300D0ED007A90ED026AD0ED17
:103F1000016A76EE675AD6EE857A25EE877A27EE25
:103F2000257A77EEC67A87EE270A30EE260A7047A2
:103F30006FF04043B0EE006AF6EE006A0B4400EB0F
:103F40008300D0ED007AD0ED015AB0EE670A90ED13
:103F5000027A77EE677A95EE860A67EEA67A30EEF9
:103F6000470A87EE800A704710EE103A23F00043AC
:103F700000EE103A704700BFDFED1F7AB4EEE70A9B
:103F8000F1EE10FA34DB9FED1D7AF7EE007ADFEDEB
:103F90001C6A30EE077A9FED1B5ADFED1B5A9FED2E
:103FA0001B6ABDEEC77A17EE103AA3F5805207EEF2
:103FB000102A6FF47862B8EEC77A1344DB0530EE4E
:103FC000477AE7EE267A67EE076AB0EE670A67EE91
:103FD000267AA6EE850A27EE277AA7EEA50AF0EE46
:103FE000407AE7EE067A07EE103A27EE870A704726
:103FF0009FED070A704700BF0000FEC20000804529
:104000008E6A313F422C773EE51F553DED185E3CF0
:1040100000000000F7EE007AB6EE007A00B52DED54
:10402000028BB0EE408A83B030EE270A20EE070AFA
:10403000B5EE400AF1EEC08AF1EE10FA17D4B7EEF1
:10404000000AC0ED008AF6EE007A30EE480A20EE53
:10405000270AB5EE400AB1EEC08AF1EE10FA0BD491
:1040600080ED018A03B0BDEC028B5DF804FB01908A
:1040700017F046FE0198E2E7019017F041FE019823
:10408000EEE700BF00000000DFED0F7A20EE270A08
:1040900008B5B7EEC00A17F013FCB2EE086B9FED3F
:1040A000065B9FED077B80EE050BA0EE067BB7EE6F
:1040B000C70B08BDAFF30080EF39FAFE422EE63F92
:1040C000000000000040514009F2143B30EE000AAD
:1040D000DFED207AB0EE607AB4EEE70AF1EE10FA86
:1040E00021D4DFED1D7AB4EEE70AF1EE10FA1ADC06
:1040F00020EE006ADFED194AF5EE003A9FED185AFE
:10410000F7EE006ADFED177A26EE064AF0EE085A5F
:10411000E6EE636A66EE270A75EEC65AE4EE246A96
:1041200066EE856A05E0DFED106ADFED100ADFED6F
:10413000105AB6EE006AF6EE087A20EE060A77EE1E
:10414000277AE0EE250A60EEA60A60EEA70A20EEC6
:10415000860A7047F30435C0F30435400000803C04
:10416000052FA73FCDCC4C3D00000000CCCCCC3E71
:10417000FFFF9FC0F0EEE00ADFED087AF4EEE70AF9
:10418000F1EE10FA09D9B7EE007AC7EE207A27EEE1
:10419000800AB8FE407A87EE270A704795BFD6336B
:1041A00010EE103A5840024B00EE100A18607047AB
:1041B0000C120020F4EEC00AF1EE10FA05D4F4EE71
:1041C000C10AF1EE10FA31FE200A7047814203DB8A
:1041D0009142A8BF11460846704700BF002908BF9A
:1041E000022834D02DE9704300F0010400258046F8
:1041F00054EA05032DED028B24D08946FCF7F6F92D
:104200000324002541EC180BB1EEC87BB5EE408BC2
:10421000F1EE10FAFDEEC77B17EE906A07D51FE0AE
:10422000FCF71AFA023445F1000513430AD0A642FE
:1042300022462B4640464946F2DABDEC028B01206D
:10424000BDE87083BDEC028B0020BDE870830120C7
:104250007047FCF701FA023445F100051343F1D031
:10426000B0EE480B17F0F8FCA64222462B4640461B
:104270004946EEDAE1E700BFDFED127AB4EEE70A75
:10428000F1EE10FA12D9DFED107AB4EEE70A08B5B4
:10429000F1EE10FA0DDDDFED0D0AB0EE000A17F0B9
:1042A0004BF8DFED0B7A20EE270A08BD9FED090AD7
:1042B0007047DFED090ADFED097A70EE600A60EE03
:1042C000A70AEAE70080BBC40060BB445655EE4233
:1042D0000000DC430000000000008A42ABAAAA3DB7
:1042E00070EE607A31EE407AB6EE006A71EEE71A4F
:1042F00070EEC16AE7EE067A31EEC11AE1EE066AA7
:1043000077EEE67AE6EE827A67EE827AE7EE067A72
:10431000E7EE820AB0EE600A704700BFDFED0F7A69
:10432000B4EEE70AF1EE10FA10D9DFED0D7AB4EE33
:10433000E70A08B5F1EE10FA0BDD9FED0A0A16F058
:1043400085FEDFED097A20EE270A08BD9FED070AFA
:104350007047DFED077A20EE270AF0E70080BBC444
:104360000060BB44D82BAD4213D0024100000000D6
:1043700020986C3D9FED117AF7EE007ADFED106A20
:1043800020EE077A9FED0F0AE7EE267A67EEA77A0E
:1043900067EEA77A67EEA77A67EEA77A67EEA77A45
:1043A00067EEA77A67EEA77A67EEA77A67EEA77A35
:1043B00067EEA77A27EE800A704700BF20986C3D11
:1043C0000000803A13D00241B5EEC00AF1EE10FAB7
:1043D00015D908B516F0BAFEB7EEC06A9FED0A7B94
:1043E0009FED0B0BA6EE070BB7EEC00BB5EEC00AA8
:1043F000F1EE10FA00D408BD9FED070A08BD9FED4D
:10440000060A7047AFF300808A4F38ED2C5F1140E9
:10441000000000000000594000000000F0B400233C
:104420000F4C00F11007A1F110060E4D1022A160F3
:1044300063602060C6602A600760C0E90133E06005
:104440004EB1194600E02A680244D1540133E268B3
:10445000D2689342F7D3044B1C60F0BC704700BF96
:104460001412002010120020241200202DE9F04127
:10447000CE68002E3BD0C21D304622F0070201E07C
:1044800020467CB3C36844689342F9D3194D9F1A00
:10449000C2602D68BD4227D20B682A447F1BD0F82A
:1044A00008E0A0EB030C624403EB020C0CEB0508E4
:1044B00043F80280CCF80C70C368CCE9014E864208
:1044C00008BFC1F80CC0D0E901420CB1A2608268FB
:1044D00002B154604C68002225442B44C0E90122FB
:1044E00000684B60BDE8F081A446C360E7E7304652
:1044F000F8E700BF101200202DE9F041CD68002D33
:1045000048D007302B4620F0070002E02346002C5D
:104510003AD0DA685C688242F8D31F4E171AD86026
:104520003668BE4233D2D1F800C03044BF1BD3F846
:1045300008E0A3EB0C0202440CEB020000EB0608BF
:104540004CF80280C760DA68C0E9014E9D4208BF9E
:10455000C860D3E901400CB1A060986800B1446024
:1045600048680024064418681644C3E901444E60B4
:1045700042B12246013800F8014F0132D968914218
:10458000F9D81868BDE8F0812046BDE8F0812046E2
:10459000DA60DBE72846F5E7101200202DE9F0414C
:1045A000204DEE68002E3BD0C21D304622F007029F
:1045B00001E0084679B3C36841689A42F9D81A4CB9
:1045C0009F1AC2602468A74227D92B6822443F1B48
:1045D000D0F808E0A0EB030C624403EB020C0CEBF8
:1045E000040843F80280CCF80C70C368CCE9011EC3
:1045F000864208BFC5F80CC0D0E9011209B18A6033
:10460000826802B15160696800220C442344C0E909
:10461000012200686B60BDE8F0818C46C360E7E76B
:104620003046F8E714120020101200202DE9F04166
:10463000284EF568002D4AD0C11D2B4621F00701F8
:1046400002E02346002C3CD0DA685C689142F8D83E
:104650002148571AD9600068874235D93268014429
:104660003F1AD3F808E0A3EB020C614402EB010C03
:104670000CEB000842F80180CCF80C70DA68CCE949
:10468000014E9D4208BFC6F80CC0D3E901410CB1F0
:10469000A160996801B14C607468002120448418BD
:1046A0001868C3E9011174604AB10A4601380C4622
:1046B00000F8014F0132D9688A42F9D31868BDE881
:1046C000F0812046BDE8F081A446DA60D9E72846AB
:1046D000F5E700BF1412002010120020284BD3F879
:1046E00000C04B68A0EB0C00A3EB0C03C268F0B554
:1046F0009B1ACE684B60002E3ED033464FF0000E22
:1047000062445C68DF6815189D421FD0DD1965445E
:10471000A84203D0ACB12346C268F1E73A44B342A1
:10472000DA6025D09A680CB1A2609A6802B1546030
:10473000C3F804E01846C3F808E0CE685E60002CB9
:10474000E9D1466006B1B060C860F0BD3A44B342FA
:10475000C2600AD025469A680DB1AA609A6802B173
:104760005560C3E901EECE68D4E7CC605D68F2E73E
:1047700018462646CC60CDE74660C860F0BD00BF55
:10478000101200202F4B2DE9F041D3F800C0DFF8C4
:10479000B8E0A0EB0C00DEF80430C568A3EB0C0316
:1047A000DEF80C605B1BCEF80430002E45D033469B
:1047B0004FF0000805E0D9196144884221D0134622
:1047C000C2B10CEB05045A68DF6821189942F2D196
:1047D000E5199E42C56027D0144699680CB1A160C6
:1047E000996801B14C60C3E901881346DEF80C609A
:1047F000002AE6D1466006B1B060CEF80C00BDE8F4
:10480000F081E5199E42DD6012D099680AB191608D
:10481000996801B14A60C3F804801846C3F808805B
:10482000DEF80C605E60CAE7CEF80C205C68D4E766
:104830003046CEF80C201646C1E74660CEF80C0094
:10484000BDE8F08110120020141200203B4B94466A
:104850002DE9F04F1F6883B0FA68002A62D0134632
:1048600002E02346002C5DD0DD685C680F2DF8D98E
:10487000A846334D4FF010090094A8F1100E2E6891
:10488000C3F80C90B64554D9D7F800A006EB090838
:104890009C68AEEB060EA3EB0A090194C844009C89
:1048A0000AEB080909EB060B4AF808B0C9F80CE056
:1048B000C9F80440D3F80C80019CC9F808409A421A
:1048C00008BFC7F80C90D3E901420CB1A2609A6806
:1048D00002B154607A680024ACF1100E32445C607E
:1048E0001E68904410229C608B18C7F804800660F4
:1048F0002A603160C6E9014CC1E90144C1F80CE00D
:104900000B60F160BEF1000F09D0234600E02A6879
:10491000C81801338454F268D2689342F7D303B0C5
:10492000BDE8F08F0023064A10240360146019606C
:10493000FFDEA146C3F80C80C1E700BF24120020AF
:10494000101200202DE9F843044640F2C4600E46E0
:104950004FF0FF37FFF722FE002120600546C661B9
:104960004FF0800C034600F580643A4608462E62FC
:10497000C5F8C0C6C5F8A816C5F8B816C5F8B47607
:10498000C3E90A020833A342FAD1334BB0006B618A
:10499000FFF704FE2B6AA8609800FFF7FFFDE860B0
:1049A000286AFFF7FBFD2B6A28619800FFF7F6FDE8
:1049B0002B6A06466862002B1EDD00244FF0FF398B
:1049C000A04600E06E6A0820A700FFF7E7FD6B6ACB
:1049D00046F82400012153F82420A8682B693844A4
:1049E000C2F8009095ED050A03F804800C44FEF728
:1049F00031FF2B6AA342E5DC05F2AC630022B7EE7F
:104A0000000A00241A60012105F5D6608026FEF711
:104A100021FF4FF40270FFF7C1FD4FF400722860D0
:104A2000FF2180F80642C0F80042A0F8046216F0A8
:104A3000E9F84FF40270FFF7B1FD4FF400726860BF
:104A4000FF21A0F8046280F80642C0F8004216F088
:104A5000D9F82C76BDE8F8830000A04070B5056851
:104A60002B6A002B0BDD06460024A86800EB8400AF
:104A70000134FEF7CDFF2B6A9C42F6DB356805F565
:104A8000D660BDE87040FEF7C3BF00BF2DE9F04718
:104A900005688FB22E68B6F802C2BCF1000F0ED0C6
:104AA00033689F4200F096803046002304E050F8BF
:104AB000044FBC4200F08E8001336345F7D1D5F836
:104AC00004C05FFA81FEBCF80232002B00F0F180D6
:104AD00000200FFA80F8441C0CEB88095CF8288051
:104AE000E0B2F045D9F8049004DAF14505DCB9F1FB
:104AF000FF3F02D09842ECD3002403F1010ADBB25D
:104B00009C421FFA8AFA0BDA0CEB830003F1FF38A0
:104B100050F8040C4CF823005FFA88F3A342F3DC4E
:104B200096F8063291464CF824E08846ACF802A28A
:104B3000002B54D0B6F80212002900F0BE800022EB
:104B400013B2501C56F823C0044606EB8303BC4541
:104B500004DA5B68BB4245DC013343D0C2B28A420F
:104B6000EED30024CBB2A3423FDCD5F81CC0013108
:104B700046F8247088B2BCF1000FA6F8020211DDDD
:104B80006A6A1368196800293ADB002404E052F8C5
:104B9000043F1968002936DB01346445A2464FEA18
:104BA0008407F4D1411EA8B156F8213005EBC303A8
:104BB000DC6A002C51DA474B034406EB830606E01F
:104BC00056F8043905EBC303DC6A002C45DA11F111
:104BD000FF31F5D24FF0FF342046BDE8F0871C4688
:104BE000B6F80212CBB2A342BFDD06EB8302581E19
:104BF00052F8042C46F82320C3B2A342F5DCB4E7F4
:104C000000242746A2462A6912F80A200AB12A7E01
:104C10006AB9A86807EE908A3844B8EEE70AFEF74A
:104C2000DFFE6B6A2A690121DB5902F80A1008F1DC
:104C3000050105EBC802A868C3E90089C5F8A846C4
:104C4000384445F83190D46293ED000AB8EEC00ABA
:104C5000FEF7AEFE2046BDE8F0876B6A4FF0FF36E8
:104C6000C5F8A81608F1050153F8242095ED050AAA
:104C70001368C2F8049005EBC303C2F80080A8686B
:104C800005EBC808DE62A60045F831903044C8F84C
:104C90002C40FEF76DFE6B6AA86853F82430304450
:104CA00093ED000AB8EEC00AFEF782FE2046BDE88A
:104CB000F0871C464FF0010A32E7D5F81CC04FF0D0
:104CC000010E3760BCF1000FA6F802E270463FF714
:104CD00057AF69E7FEFFFF3F2DE9F047D0F800A08E
:104CE000DAF80000B0F8024274B103688B4200F0B9
:104CF000E2800346002604E053F8042F914200F0BE
:104D000091800136B442F7D1DAF80470B7F8024264
:104D10006CB13B68994200F0D1803B46002603E02D
:104D200053F8042F914253D00136A642F8D14A1DC0
:104D300000240AEBC1034FF0FF364AF83240DAF89C
:104D40002020DE62A24240F3B080DAF824301E68F0
:104D50003768B94205D10EE053F8046F35688D42CB
:104D60000AD0013494424FEA8407F5D14FF0FF3462
:104D70002046BDE8F0872746B0F802E24FF0FF3347
:104D80000022C6E90032CAF8A846BEF1000FEFD0F3
:104D9000B0F90030DFF82C810AEBC301A8F800302D
:104DA000C96A91426ADB944609E050F8043F4FF02B
:104DB000010C1BB20AEBC301C96A00295CDB01329A
:104DC0007245F2D1BCF1000FD2D0A8F80030CFE785
:104DD000A4EB060EBEF1000F6BDDB7F804C2002293
:104DE0004FF0FF38013C1346C44406E0013247F857
:104DF0002380D2B29645134611DD3344634507EB59
:104E00008309F3DA0132A342D9F80450D2B247F849
:104E1000235008BFC9F8048096451346EDDCA7F877
:104E2000024284E7A4EB0608B8F1000F3FDDB0F8BA
:104E300004E200224FF0FF37013C1346BE4406E077
:104E4000013240F82370D2B29045134611DD33444D
:104E5000734500EB830CF3DA0132A342DCF8045013
:104E6000D2B240F8235008BFCCF8047090451346E6
:104E7000EDDCA0F8024247E7A8F80030DAF80800B5
:104E800007EE903A3360B8EEE70A3844FEF790FD3B
:104E9000B8F90030DAF82420591D0AEBC303D259BF
:104EA0005AF831105160DC6260E7344660E7013C3B
:104EB000DFE7013CB3E7A0460026B8E7A646002698
:104EC0008BE700BF000000200268136A9942A8BF68
:104ED0001946D161704700BF03681976704700BF5B
:104EE0000368D869704700BF03681B68B3F8020203
:104EF000704700BF10B50468A0682DED028B00EB71
:104F00008100FEF7ADFDB0EE408A04F5D660FEF7F5
:104F1000A7FD38EE000ABDEC028B10BD03685B6A8A
:104F200053F821305868704703685B6A53F82130A2
:104F300018680028D4BF00200120704710B504462F
:104F40000C20FFF72BFB002320604360036010BDA3
:104F50000068FFF717BC00BFB5EEC00A084A036837
:104F60000020D2ED017AF1EE10FA48BF9FED050A5C
:104F700083ED020A27EE800A83ED010A704700BF25
:104F800028120020000000000368B7EE007AD3ED7D
:104F9000007AD3ED016A77EEA67AF4EEC77AC3ED14
:104FA000007AF1EE10FA08DB77EEC77AF4EEC77AF2
:104FB000F1EE10FAF8DAC3ED007A9FED0F7A0F4A9E
:104FC00067EE877ABDEEE77A17EE103AB8EEC77A49
:104FD000591C02EB830077EEC77AB1F5006F90EDB4
:104FE000000AA8BF002102EB810292ED007A37EEA1
:104FF000407AA7EE270A704700000045F4DF010859
:1050000010B5096804460C20FFF730FA0023206031
:105010004360036010BD00BF09680068FFF75EBB16
:10502000B5EEC00A084A03680020D2ED017AF1EE1D
:1050300010FA48BF9FED050A83ED020A27EE800AA9
:1050400083ED010A704700BF281200200000000015
:105050000368B7EE007AD3ED007AD3ED016A77EEFC
:10506000A67AF4EEC77AC3ED007AF1EE10FA08DB07
:1050700077EEC77AF4EEC77AF1EE10FAF8DAC3EDFC
:10508000007AF3EE046A93ED027AB0EE676AB4EE4A
:10509000E67ABEEEEA6AF1EE10FA16EE100A40F277
:1050A0008380DFED8C6AB4EEE67AF1EE10FA61D916
:1050B000DFED896AB4EEE67AF1EE10FA7AD9DFED27
:1050C000876AB4EEE67AF1EE10FA40F28F80DFEDF7
:1050D000846AB4EEE67AF1EE10FA40F2A380DFEDD6
:1050E000816AB4EEE67AF1EE10FA40F2A780DFEDC5
:1050F0007E6AB4EEE67AF1EE10FA40F2AB80DFEDB4
:105100007B6AB4EEE67AF1EE10FA40F2AF80DFEDA2
:10511000786AB4EEE67AF1EE10FA40F2B380DFED91
:10512000756AB4EEE67AF1EE10FA40F2B780DFED80
:10513000726A00F5A043714AB4EEE67A02EB83038B
:10514000F1EE10FA93ED000A13D836EEC77A9FED10
:105150006C6AF7EE006A00F5904367EE067A02EBA0
:10516000830393ED006A36EEE77A27EE000AA6EE97
:10517000270A704736EEC77ADFED626A5F4B00F5AB
:105180000061B7EE000A27EE267A03EB800203EBFC
:105190008103D2ED007A30EE470AD3ED006A20EEAB
:1051A000260AA7EE870A7047544B03EB800393ED62
:1051B000000A704736EEC77ADFED536A4F4B00F5B1
:1051C0008052B7EE000A00F5006127EE267A03EB65
:1051D000820203EB8103D2ED006A30EE470AD3ED81
:1051E000007A20EE260AA7EE870A7047B7EE000A7B
:1051F000424B36EEC77A00F5C052DFED446A00F547
:10520000805167EE267A03EB820203EB8103D2ED35
:10521000006A30EE670A93ED007A20EE260AA7EEC8
:10522000270A704736EEC77A344BDFED396AB7EE9E
:10523000000A00F5005200F5C051E2E736EEC77AE9
:105240002E4BDFED346AB7EE000A00F5205200F570
:105250000051D6E736EEC77A284BDFED2F6AB7EE5E
:10526000000A00F5405200F52051CAE736EEC77A31
:10527000224BDFED2A6AB7EE000A00F5605200F516
:105280004051BEE736EEC77A1C4BDFED256AB7EE1C
:10529000000A00F5804200F56051B2E736EEC77AA9
:1052A0009FED206A00F59042144BB7EE000A00F51E
:1052B000804167EE067A03EB820203EB8103D2EDB5
:1052C000006A30EE670A93ED007A20EE260AA7EE18
:1052D000270A7047000020420000A042000020433F
:1052E0000000A043000020440000A044000020452E
:1052F0000000A045000020460000A046F4FF0C0876
:10530000CDCCCC38CDCC4C3DCDCCCC3CCDCC4C3C1C
:10531000CDCCCC3BCDCC4C3BCDCCCC3ACDCC4C3A0F
:10532000CDCCCC39CDCC4C3970B5674E0546582024
:105330002DED088B82B0B0EE409AB0EE608AB0EEF0
:1053400041BA0191F0EE618AF0EE42BAF0EE629A53
:10535000B0EE43AAF0EE63AAFFF720F9002304465B
:1053600096ED000A50302C6080EE090AE361DFED13
:10537000570AFEF779FB2B68F3EE047AB4EEE79A4E
:10538000F1EE10FA07D4DFED527AB4EEE79AF1EEBF
:1053900010FA77FE897A96ED007A03F1500087EED5
:1053A000270A83ED010AFEF7BFFB204619EE103AEB
:1053B000DFED460AB0EE480A40F8543BFEF754FBD6
:1053C000B5EEC08A2868F1EE10FA7AD4F7EE007ACA
:1053D000B4EE678AF1EE10FA37FE888A80ED028A11
:1053E000B0EE480A5430FEF79FFB94ED010A04F139
:1053F000200084ED03BA4FF41661FCF797F894EDA2
:10540000010A04F124004FF41661FCF78FF894EDC3
:10541000010A04F128004FF41661FCF787F84FF4F5
:10542000166194ED010A04F12C00FCF77FF8B0EE50
:10543000680A04F13000C4ED048AFEF7CFFBB0EE39
:10544000680A04F13400FEF7C9FBB0EE680A04F103
:105450003800FEF7C3FBB0EE680A04F13C00FEF72B
:10546000BDFB04F14400B2EE0A0AFEF7DDFC04F1D4
:105470004000B2EE0A0AFEF7D7FC0199B0EE6A1AB4
:1054800004F14800F0EE4A0AC4ED05BAB0EE690A2C
:1054900084ED03BAFCF782FD0199B0EE6A1A04F1BB
:1054A0004C00F0EE4A0AB0EE690AFCF777FDDDED3C
:1054B000017AF8EEE77AC4ED067A02B0BDEC088B0B
:1054C00070BD9FED048A89E7281200200AD7233C8B
:1054D00000401C460000000010B5046804F15000B4
:1054E000FEF7F8FA04F15400FEF7F4FA04F1200094
:1054F000FCF78EF804F12400FCF78AF804F1280088
:10550000FCF786F804F12C00FCF782F804F1300077
:10551000FEF796FB04F13400FEF792FB04F138002D
:10552000FEF78EFB04F13C00FEF78AFB04F1440019
:10553000FEF798FC04F14000FEF794FC04F14800EB
:10554000FCF74CFD04F14C00FCF748FD2046BDE89B
:105550001040FFF717B900BFB3EE047A0368B4EE4A
:10556000C70AF1EE10FA12D49FED0A7AB4EE470A98
:10557000F1EE10FA77FE007A074A03F1500092ED3F
:10558000007A87EE270A83ED010AFEF7CDBAF0EE26
:10559000477AF1E700401C4628120020B5EEC00A09
:1055A0000068F1EE10FA0CD4F7EE007A5430B4EE45
:1055B000670AF1EE10FA37FE800A00ED130AFEF7D3
:1055C000B3BA9FED030A543000ED130AFEF7ACBAEC
:1055D0000000000010B504682DED028BB0EE408A8B
:1055E00004F13000FEF730FB04F13400B0EE480A5D
:1055F000FEF72AFBB0EE480A04F13800FEF724FB60
:10560000B0EE480A04F13C00BDEC028BBDE810404E
:10561000FEF71ABB036883ED050A704710B50468EE
:105620002DED028BB0EE408A04F14800FCF73AFD04
:1056300004F14C00B0EE480ABDEC028BBDE810400E
:10564000FCF730BD2DE9F843046804F1200804F1AB
:10565000240604F1280504F12C07404604F148090A
:105660002DED068BF0EE408AFCF734F83046F0EE74
:10567000409AFCF72FF82846F0EE40AAFCF72AF8EB
:105680003846B0EE40AAFCF725F8D4ED067AB0EE25
:10569000409A04F13400F5EE407AB0EE6A0AF1EE79
:1056A00010FA14BFB7EE008A94ED058AFEF7E8FA07
:1056B00004F14400FEF70CFC484620EE080A04F111
:1056C0004C09FCF7C9FC2846B1EE400AFBF7ECFF99
:1056D000B7EE008AB0EE690A04F13C00FEF7D0FA9A
:1056E00094ED037A384678EE477A67EE8A7AE0EEF0
:1056F000477A37EEA80AFBF7D7FFD4ED067AB0EE6B
:10570000490A04F13000F5EE407AF1EE10FA08BFD4
:1057100094ED058AFEF7B4FA04F14000FEF7D8FBD9
:10572000484620EE080AFCF797FCB1EE409A404646
:10573000B7EE008AB0EE490AFBF7B6FFB0EE4A0AB0
:1057400004F13800FEF79CFA94ED037A304678EEC7
:10575000477A67EEA97AE0EE477A37EEA80AFBF7B8
:10576000A3FF04F15400FEF7E3F9F0EE408A04F1E0
:105770005000FEF7DDF9404638EE688A68EE808A10
:1057800028EE008AB0EE680AFBF7CEFFB0EE680A9A
:105790003846FBF7C9FFB0EE480A3046FBF7C4FFB6
:1057A000B0EE480A2846FBF7BFFFB0EE490A84ED89
:1057B000079ABDEC068BBDE8F88300BF2DE9F04FDA
:1057C0002DED068B95B0684F0446B0EE40AA0390CD
:1057D0007020FEF7E3FED7ED006A9FED647A05AE18
:1057E000DFF89CC1B5EEC0AAC6EE877A20600290B1
:1057F00004ACF1EE10FABCE80F000FC6BCE80F00D5
:105800000FC6BCE80F000FC6594BFDEEE77A029AAF
:1058100098BF9FED58AAD36005AB17EE905A01933D
:105820009CE8070086E8070013AE54F8043F03FB2A
:1058300005FB1BF0010F08BF0BF1010BD8464FEA27
:10584000EB7901E00BF1020B404618F102084946E2
:1058500049F10009FEF7C2FC0028F3D0A642C4F8C3
:1058600000B0E2D1029B03F14C0B03F16406019BF3
:10587000ABF11C0A53F8045B504607EE905A0193B3
:10588000B8EEE70A70EE007AFCEEE77A17EE901AAF
:10589000FBF74CFE5046FBF7C5FE97ED017AA5EBF2
:1058A0008503B2EE040B07EE903AF8EEE77A67EE66
:1058B000877A87EE8A1AB7EEC11A16F079F8B7EE32
:1058C000C00BABEC010AB345D1D1029B0BAE03F187
:1058D0001005B6EC010A2846B8EEC00A70EE007A50
:1058E000FCEEE77A17EE901AFBF720FE2846FBF74E
:1058F00099FEA64205F10405EBD1B5EEC0AA039BC3
:10590000B8EE088B1B68F1EE10FA03F14C0403F1BA
:10591000640598BF9FED17AAB7EECA9A83ED01AA56
:10592000A4F11C00FBF740FFB7EEC01A97ED017A17
:10593000B2EE040B21EE081BB7EEC77A21EE071B6F
:1059400081EE091B16F034F8B7EEC00BA4EC010A87
:10595000A542E5D10299084A084B8A640B6015B04C
:10596000BDEC068BBDE8F08F281200200052C8461F
:10597000C637BE376F12833A3333333F9A99993E15
:10598000B8DF0108F8B5076807F1300507F14806E8
:105990002C4620460434FBF73BFEB442F9D107F114
:1059A000100420460434FBF733FEA542F9D13846F3
:1059B000BDE8F840FEF7E6BEB5EEC00A036870B574
:1059C000F1EE10FA03F14C0403F16406144D98BF94
:1059D0009FED140A2DED048BB7EEC09A83ED010AFA
:1059E000B8EE088BA4F11C00FBF7DEFEB7EEC01A80
:1059F00095ED017AB2EE040B21EE081BB7EEC77AE3
:105A000021EE071B81EE091B15F0D2FFB7EEC00B8C
:105A1000A4EC010AB442E5D1BDEC048B70BD00BF1B
:105A2000281200206F12833A036883ED000A704742
:105A30002DE9F041056888462DED068BB0EE409AC1
:105A40009FED4C8A05F14C0405F1640785ED1A0AB7
:105A5000A4F11C06F4EC018A3046FBF7A9FEF0EE37
:105A6000497A3046E8EE807AB0EE670AFBF7E4FD4B
:105A7000BC4238EE008AEBD105F1100405F11C069A
:105A80002046FBF795FED5ED127AF0EE408A2046CF
:105A9000A7EE808A0434B0EE480AFBF7CDFDD5EDC1
:105AA000127AA642E7EEC88AB0EE688AE8D1DFED46
:105AB000327A304695ED197A2C4628EEA78ADFED2A
:105AC0002F7A2034B7EE00AA05F12407A7EE278A23
:105AD00085ED198AFBF76CFED5ED127A95ED198AE2
