:020000040800F2
:1000000000000220ADDE01084D3D010801DF0108BE
:10001000513D0108553D0108593D0108000000000F
:100020000000000000000000000000005D3D01082D
:10003000613D010800000000653D0108693D0108BF
:1000400001DF010801DF010801DF010801DF01080C
:1000500001DF010801DF010801DF010801DF0108FC
:1000600001DF010801DF010801DF01086D3D010822
:10007000793D0108853D010801DF010801DF010824
:1000800001DF010801DF0108913D010801DF0108DE
:1000900001DF010801DF010801DF010801DF0108BC
:1000A00001DF010801DF010801DF010801DF0108AC
:1000B00001DF010801DF010801DF010801DF01089C
:1000C00001DF010801DF010801DF010801DF01088C
:1000D00001DF010801DF010801DF010801DF01087C
:1000E00001DF010801DF01080000000001DF010855
:1000F00001DF010801DF010801DF010801DF01085C
:1001000001DF010801DF010801DF010801DF01084B
:1001100001DF010801DF010801DF010801DF01083B
:1001200001DF010801DF010801DF010801DF01082B
:1001300001DF010801DF010801DF010801DF01081B
:1001400000000000000000000000000000000000AF
:1001500001DF010801DF010801DF010801DF0108FB
:1001600001DF010801DF010801DF010801DF0108EB
:1001700001DF010801DF010801DF010800000000C4
:1001800001DF010801DF010801DF010801DF0108CB
:1001900001DF010801DF010801DF010801DF0108BB
:1001A00001DF010801DF010801DF010801DF0108AB
:1001B00001DF010801DF010801DF01089D3D0108A1
:1001C000A93D010801DF0108B53D0108C13D010855
:1001D00001DF0108CD3D0108D93D010801DF01081B
:1001E00001DF010801DF010801DF010801DF01086B
:1001F00001DF010801DF010801DF010801DF01085B
:1002000001DF010801DF010801DF010801DF01084A
:1002100001DF010801DF010801DF010801DF01083A
:1002200001DF010801DF010801DF01080000000013
:1002300001DF010801DF01080000000001DF010803
:1002400001DF0108E53D0108F13D010801DF01087A
:1002500001DF010801DF010801DF010801DF0108FA
:1002600001DF010801DF010801DF010801DF0108EA
:1002700001DF010801DF010801DF010800000000C3
:1002800001DF010801DF010801DF010800000000B3
:080290000000000001DF01087D
:1002A00010B5054C237833B9044B13B10448AFF3B0
:1002B00000800123237010BD6012002000000000A8
:1002C0003C19020808B5034B1BB103490348AFF3BF
:1002D000008008BD00000000641200203C190208E4
:1002E00081F0004102E000BF83F0004330B54FEAE7
:1002F00041044FEA430594EA050F08BF90EA020F54
:100300001FBF54EA000C55EA020C7FEA645C7FEAE6
:10031000655C00F0E2804FEA5454D4EB5555B8BF09
:100320006D420CDD2C4480EA020281EA030382EA7A
:10033000000083EA010180EA020281EA0303362D0C
:1003400088BF30BD11F0004F4FEA01314FF4801CDF
:100350004CEA113102D0404261EB410113F0004FF1
:100360004FEA03334CEA133302D0524263EB4303A8
:1003700094EA050F00F0A780A4F10104D5F1200E46
:100380000DDB02FA0EFC22FA05F2801841F10001A1
:1003900003FA0EF2801843FA05F359410EE0A5F175
:1003A00020050EF1200E012A03FA0EFC28BF4CF0A6
:1003B000020C43FA05F3C01851EBE37101F000455C
:1003C00007D54FF0000EDCF1000C7EEB00006EEB69
:1003D0000101B1F5801F1BD3B1F5001F0CD34908F3
:1003E0005FEA30004FEA3C0C04F101044FEA44524A
:1003F00012F5800F80F09A80BCF1004F08BF5FEAD1
:10040000500C50F1000041EB045141EA050130BDB0
:100410005FEA4C0C404141EB010111F4801FA4F153
:100420000104E9D191F0000F04BF01460020B1FAA8
:1004300081F308BF2033A3F10B03B3F120020CDAE0
:100440000C3208DD02F1140CC2F10C0201FA0CF0BE
:1004500021FA02F10CE002F11402D8BFC2F1200C23
:1004600001FA02F120FA0CFCDCBF41EA0C019040D9
:10047000E41AA2BF01EB0451294330BD6FEA040422
:100480001F3C1CDA0C340EDC04F11404C4F120020D
:1004900020FA04F001FA02F340EA030021FA04F31F
:1004A00045EA030130BDC4F10C04C4F1200220FA76
:1004B00002F001FA04F340EA0300294630BD21FAB4
:1004C00004F0294630BD94F0000F83F4801306BF7A
:1004D00081F480110134013D4EE77FEA645C18BF6E
:1004E0007FEA655C29D094EA050F08BF90EA020F05
:1004F00005D054EA000C04BF1946104630BD91EAFD
:10050000030F1EBF0021002030BD5FEA545C05D1FF
:100510004000494128BF41F0004130BD14F580043E
:100520003CBF01F5801130BD01F0004545F0FE41B2
:1005300041F470014FF0000030BD7FEA645C1ABFE7
:10054000194610467FEA655C1CBF0B46024650EA1E
:10055000013406BF52EA033591EA030F41F400214A
:1005600030BD00BF90F0000F04BF0021704730B5D0
:100570004FF4806404F132044FF000054FF00001A5
:1005800050E700BF90F0000F04BF0021704730B566
:100590004FF4806404F1320410F0004548BF40423B
:1005A0004FF000013EE700BF42004FEAE2014FEA90
:1005B00031014FEA02701FBF12F07F4393F07F4F6B
:1005C00081F06051704732F07F4208BF704793F06E
:1005D0007F4F04BF41F40021704730B54FF4607481
:1005E00001F0004521F000411CE700BF50EA010284
:1005F00008BF704730B54FF000050AE050EA01022D
:1006000008BF704730B511F0004502D5404261EB9C
:1006100041014FF4806404F132045FEA915C3FF4DD
:10062000D8AE4FF003025FEADC0C18BF03325FEA7A
:10063000DC0C18BF033202EBDC02C2F1200300FA2B
:1006400003FC20FA02F001FA03FE40EA0E0021FA50
:1006500002F11444BDE600BF53B94AB9002908BFEE
:1006600000281CBF4FF0FF314FF0FF3000F072B98F
:10067000ADF1080C6DE904CE00F006F8DDF804E0F9
:10068000DDE9022304B070472DE9F047089E0446D7
:100690008846002B4BD18A42154667D9B2FA82F2BE
:1006A0004AB1C2F1200701FA02F320FA07F7954098
:1006B00047EA030894404FEA154E230CB8FBFEF7B7
:1006C0001FFA85FC0EFB178843EA084307FB0CF171
:1006D000994209D9EB1807F1FF3080F01B8199424C
:1006E00040F21881023F2B445B1AA4B2B3FBFEF028
:1006F0000EFB103344EA034400FB0CFCA44509D96B
:100700002C1900F1FF3380F00781A44540F20481E9
:1007100002382C4440EA0740A4EB0C0400271EB129
:10072000D4400023C6E900433946BDE8F0878B4238
:1007300009D9002E00F0EB800027C6E900013846F9
:100740003946BDE8F087B3FA83F7002F47D18B42D3
:1007500002D3824200F2FA80841A61EB0303012083
:100760009846002EE0D0C6E90048DDE702B9FFDE7A
:10077000B2FA82F2002A40F08F80491B4FEA154EF0
:100780001FFA85F80127B1FBFEFC230C0EFB1C11A0
:1007900043EA014308FB0CF1994207D9EB180CF12D
:1007A000FF3002D2994200F2CD808446591AA3B29A
:1007B000B1FBFEF00EFB101443EA044408FB00F802
:1007C000A04507D92C1900F1FF3302D2A04500F251
:1007D000B6801846A4EB080440EA0C409FE7C7F136
:1007E000200CBB4022FA0CFE4EEA030E01FA07F47D
:1007F00020FA0CF521FA0CF34FEA1E482543B3FB0F
:10080000F8F92C0C08FB19331FFA8EFA44EA03435B
:1008100009FB0AF49C4202FA07F200FA07F10BD92D
:100820001EEB030309F1FF3080F087809C4240F209
:100830008480A9F1020973441B1BADB2B3FBF8F02D
:1008400008FB103345EA034400FB0AFAA24508D925
:100850001EEB040400F1FF336BD2A24569D90238C4
:10086000744440EA0940A0FB0289A4EB0A044C4509
:10087000C2464B4654D351D0002E69D0B1EB0A0585
:1008800064EB030404FA0CFCFD40FC404CEA050553
:10089000C6E90054002747E7C2F1200320FA03F716
:1008A000954001FA02F021FA03F34FEA154E38435E
:1008B000010CB3FBFEF71FFA85F80EFB173341EA74
:1008C000034107FB08F38B4204FA02F407D96918C5
:1008D00007F1FF3C2FD28B422DD9023F2944CB1A7E
:1008E00081B2B3FBFEF00EFB103341EA034100FB83
:1008F00008F38B4207D9691800F1FF3C17D28B42ED
:1009000015D902382944C91A40EA07473BE7374658
:10091000304609E70746E7E61846FBE64145ABD215
:10092000B8EB020A69EB0E0201381346A4E76046F1
:10093000E9E7184695E76746D1E781467CE7023844
:100940002C4447E7ACF1020C2B442FE7384608E76C
:100950003746E9E6704700BF034613F8012B002A2B
:10096000FBD1181A0138704738B50E4D2B780BB9EA
:10097000012038BD4FF47A720B4904460868B2FB77
:10098000F3F3B0FBF3F001F011F80F2CF0D80028CE
:10099000EED1002221464FF0FF3000F0AFFF0020E3
:1009A0006C6038BD000000208802002030B50320B4
:1009B00083B000F08FFF124D05F07AFA114A124908
:1009C0009369124CC3F30323CB5C03F01F0320FA9B
:1009D00003F300202B60926902F00F028A5C02F0A0
:1009E0001F02D3402360FFF7BFFF10B1012003B007
:1009F00030BD019013F098F9019803B030BD00BFED
:100A00008802002000440258901703088C0200203E
:100A1000034A044B11681B780B441360704700BFF6
:100A2000D413002000000020014B1868704700BF5D
:100A3000D413002038B50446FFF7F6FF0546631CC3
:100A400002D0044B1B781C44FFF7EEFF401BA04272
:100A5000FAD338BD00000020014B1868000C704725
:100A60000010005C034A136823F0407318431060C1
:100A7000704700BF004000522DE9F0475D4C06680A
:100A8000A64230D05C4B9E422DD05C4CA568B46829
:100A900064072DD490F85030012B29D005F01F05A4
:100AA000012390460F46092D044680F8503005D9A1
:100AB0000023012084F85030BDE8F08740F2212067
:100AC000E840C007F4D5B368D90714D4B2684C4BDA
:100AD0001A424ED0636D43F010036365A36D43F07B
:100AE0000103A365E4E7474CA568B4686407D1D562
:100AF0000220BDE8F087404AB21A18BF0122616D9A
:100B0000414B0B4043F48073636505B11AB1636DCB
:100B100023F480136365636D13F4805327D0A36DB2
:100B200023F00603A365E16C1C25DFF8E8C03A4614
:100B300036480027C1F83CC04346DFF8DCC00864F3
:100B40000846C1F84CC006F140013560756884F86C
:100B5000507045F01005756001F0ACFB22682C4B1D
:100B600091680B4043F004039360BDE8F087A365F0
:100B7000D9E7B268264B134043F00103B360FFF797
:100B800053FF26681B4B81469E4222D003F580739B
:100B90009E421ED0194B9B68DFF874A00CE0B3682E
:100BA00003EA0A0343F00103B360FFF73DFFA0EB44
:100BB000090002288ED826683368DB079BD4B36807
:100BC000DA07ECD5FFF730FFA0EB09000228F2D9D5
:100BD00080E70C4A084B926812F01F0F0CBF0122ED
:100BE00000229E4218BF42F00102002AD4D11E46C4
:100BF00085E700BF00200240002102400063025848
:100C00003F00008000230240FEF0FFFF1D0C0008A3
:100C1000C0FFFF7FB50E00081D0F000808B5806BF0
:100C20000DF084FE08BD00BF704700BF704700BFD5
:100C3000F8B59C4A0446036893421D685E6800F05C
:100C4000838002F5807293427ED0974A9768AA0704
:100C500007F01F0702D5B00700F19A806A0768D530
:100C6000700766D5626DD00603D4626D42F40072DF
:100C70006265DA6812F4406F1CD18C4A934200F02E
:100C8000E980DA68910415D41A68120712D59A68B7
:100C9000500700F1FC805A6822F00C025A60636D24
:100CA00023F480736365636DD90403D4636D43F0EB
:100CB0000103636520460DF037FE23680C221A609D
:100CC000AA063CD5B0063AD5626DD00603D4626D53
:100CD00042F4005262657548DA6C8342D96802F4C6
:100CE000C07201F4406161D0D868002A67D000F07A
:100CF00000720A4300F0B380204600F081FD2368B3
:100D000060221A60290602D5320600F18C80E805BF
:100D100002D5F10500F19280AA0501D5B00576D47F
:100D2000E90601D5F20611D4680501D571055ED436
:100D3000F8BD2907C4D5320794D4AA06C2D46906DF
:100D4000E0D57206DED5BFE7594A7FE7226B82B154
:100D5000002F00F08F80534A934200F0A18002F5EB
:100D60008072934200F09C804F4A926812F4404F88
:100D70000BD0636D204643F480636365A36D43F03D
:100D80000203A365FFF752FF236810221A60CBE726
:100D9000636DD90603D4636D43F400636365204635
:100DA00000F036FD236802221A6057E7B81F0128B9
:100DB0009AD9002F98D03B48C068002A97D11A686A
:100DC000520699D5810297D49A68120756D45A6868
:100DD00022F060025A60636D23F480536365636D93
:100DE000D80589D4636D43F00103636584E7626DC0
:100DF0004FF48061204642F480426265A26D42F069
:100E00000802A2651960BDE8F84000F0FBBC636D04
:100E1000204643F48023636500F0F8FC23684FF418
:100E200000721A607CE7636D204643F4803363658B
:100E3000FFF7FAFE236880221A6068E7636D204698
:100E400043F40033636500F0DFFC23684FF48072E5
:100E50001A6061E7092F06D9124AD26812E78104A5
:100E60003FF54AAFABE740F22122FA40D2073FF507
:100E700008AFF1E7DA68970787D07AE7636D43F048
:100E800010036365A36D43F00103A36534E7636D4D
:100E900043F010036365A36D43F00103A36509E705
:100EA000034A62E70020024000630258002102402A
:100EB00000230240836B5A6D12F0500F5A6D10B52B
:100EC0001DD1196842F400725A650A6812F0080FC1
:100ED000CA681BD012F4406F0DD1CA6894040AD4BA
:100EE0005A6D22F480725A655A6DD10403D45A6D3A
:100EF00042F001025A6518460DF016FD10BDD206EB
:100F000007D4DB6CBDE81040DB6C18479007F2D1CA
:100F1000E6E71846FFF78AFE10BD00BF08B5836BF1
:100F20005A6D184642F040025A659A6D42F004022A
:100F30009A65FFF77BFE08BD0246002092F850300C
:100F40002DE9F041012B82B0019000F0348113684B
:100F500001209C6882F85000670743D40C68C4F3F2
:100F60001305C4F38467002D40F0A580B8404C6899
:100F70004FF01F0CDD69A60904EA0C04284303F1B5
:100F8000300506F00C060CFA04FCD86107FA04F4EC
:100F9000705920EA0C00204370519868460700F110
:100FA00088809D6815F0080526D09868C50717D475
:100FB000CE680C6806F01807BC48D3F8C050F8405B
:100FC000C4F31307DFF80CC3204025EA0705664584
:100FD00040EA0500C3F8C00000F0A680002C72DBD8
:100FE000002003E0536D43F020035365002382F893
:100FF000503002B0BDE8F0810C6803F11406072000
:101000008F684FEAD45CC4F304540CF0040C00FA6B
:1010100004FE07FA04F4A64F5CF8060020EA0E006E
:1010200020434CF80600386800F07040B0F1805F53
:1010300000F0B880DC68486914F0100FDC6840F0FC
:10104000D980C4F38204640000FA04FCD1F810E0F3
:101050000868BEF1040F00F0B28003F1600600F0F2
:10106000F8444F7E56F82E00012F0F7E00F000400E
:1010700014BF4FF000084FF000482043012F40EA12
:101080000C0046F82E000C6956F8240020F00040B1
:1010900040EA080046F82400086904D100F01F0067
:1010A0004FF400658540186920F4F04005431D6148
:1010B0007BE7986879E794FAA4F4B4FA84F404F02E
:1010C0001F04A04053E77B498B4200F0BD8001F52F
:1010D00080718B4200F0B880774E784DA868B16877
:1010E00000F0E076C94301F00101002900F0BA8068
:1010F00073498C4200F0F08072498C4200F00E81FE
:1011000071498C427FF46CAF41023FF569AF6A4987
:101110008B427FF465AFA96846F48003002021F07C
:10112000E0710B43AB6061E7002F69D094FAA4F043
:10113000B0FA80F0013000F01F00092800F298801A
:1011400094FAA4F0B0FA80F094FAA4F50126B5FA66
:1011500085F501303544800605F01F0500F0F840A4
:1011600006FA05F5284394FAA4F4B4FA84F4344456
:1011700004F01F0404EB44042405044303F11406A3
:101180004FF0070C8868E70DC4F3045407F0040718
:101190000CFA04FCA040BD5925EA0C040443BC51E0
:1011A0000C681BE7DC684869C4F3820C4FEA4C0CFE
:1011B00000FA0CFC4AE7022002B0BDE8F0811C6E88
:1011C000800604F0F844844239D05C6E04F0F844A0
:1011D000A0422FD09C6E04F0F844A04225D0DC6ED3
:1011E00004F0F844A0427FF4E0AED86E20F0004056
:1011F000D866DAE6640804F0080400FA04FC25E77F
:101200000120A40E044404F01F05A40600FA05F60C
:10121000092D04F0F84005EB450440EA0600ABD97F
:101220001E3C240544F00074A7E79C6E24F00044A3
:101230009C66D4E75C6E24F000445C66CAE71C6ED2
:1012400024F000441C66C0E72049214E194F0D468A
:101250008868BF68B16800F0E0763943C94301F09F
:10126000010142E7536D012043F020035365BDE6C1
:1012700094FAA4F0B0FA80F094FAA4F50126B5FA35
:1012800085F501303544800605F01F0500F0F84073
:1012900006FA05F5284394FAA4F4B4FA84F4344425
:1012A00004F01F0404EB4404BAE700BFFFFF0F0083
:1012B0000010005C002002400060025800630258E9
:1012C000000084CB000052C70000B8CF00230240CA
:1012D000002102400000FF4704023FF581AE17499C
:1012E0008B427FF47DAE164B46F40001A8681B6864
:1012F00020F0E070134C9B090143A4FB0303A96099
:101300009B095B000193019B002B3FF469AE019B9D
:10131000013B0193019B002BF9D161E6C0013FF530
:101320005FAE06498B427FF45BAEA96846F08073DE
:10133000002021F0E0710B43AB6057E600600258DB
:1013400088020020632D3E0538B503689968890737
:1013500002D59B68002038BD9968CA0723D59968D3
:10136000044601F00D01012908D0636D012043F00E
:1013700010036365A36D0343A36538BD986803211B
:101380000A4A024042F002029A601960FFF74CFBE1
:10139000054604E0FFF748FB401B0228E5D8236818
:1013A0009B68DB07F6D4002038BD00BFC0FFFF7F7D
:1013B00038B5544A05460368934227D002F5807237
:1013C000934223D0504B9B6813F4403F14BF01233A
:1013D000002323B304F016FF6B680446B3F5003F07
:1013E00066D0B3F5403F76D0B3F5803F60D0FFF7CD
:1013F00033FB41F20303984232D8444A2B689442AB
:1014000028D99A6842F480729A6038BD404B9B6834
:1014100013F4403F14BF01230023002BDAD14FF413
:10142000002005F021FF6B680446B3F5C01F4DD0C6
:1014300042D9B3F5101F52D02BD9B3F5201F4CD091
:10144000B3F5301FD3D1FFF707FB41F203039842F6
:1014500005D82B689A6822F480729A6038BD240AF5
:1014600064082C4A2B6894420ED92B4A2B492244FB
:101470008A4216D92A4A2B4922448A429A6832D98A
:1014800042F440729A6038BD9A6822F440729A60C1
:1014900038BDB3F5E01F24D0B3F5001FA7D1440930
:1014A000A5E79A6822F4407242F480729A6038BDCF
:1014B0001B0CB4FBF3F49AE7B3F5402F06D018D811
:1014C000B3F5802F02D0B3F5002F90D19B0C5B00B9
:1014D000B4FBF3F48BE7840889E7C40987E7840940
:1014E00085E7040983E722F4407242F400729A60AF
:1014F00038BDB3F5801FE9D0B3F5A01F7FF477AFF7
:10150000E4E700BF0020024000630258002D3101D3
:1015100000230240105E5F00EFA1A0FF0F5E5F009E
:10152000DF4341FF1FBCBE0070B5002382B00193B2
:10153000002800F0AA80456D0446002D00F09A8036
:10154000226893689D0003D59168774B0B409360A8
:101550009368D80015D4754B90681B68744D9B092F
:101560007449A5FB035301409B0941F080519160F0
:101570000193019B2BB1019B013B0193019B002B2C
:10158000F9D19368D90067D4636D012543F0100346
:101590006365A36D2B43A365936813F0040F636D1C
:1015A00060D1DB065ED4636D23F4817343F00203E4
:1015B00063659368DE0713D45F4B9A4200F0928014
:1015C00003F580739A4200F08D805C4B9B68D907CD
:1015D00006D45B4A9368616823F47C130B439360E1
:1015E000FFF73AFA41F20303627D9842217F6CD9FA
:1015F000A36852030E04206B102B00F08E801A4358
:1016000032430243012903D1236A013B42EA4342A8
:10161000636A23B103F47873A16A0B431A43236806
:101620004849D86801400A43DA609A6812F0040F0A
:101630009A6801D112072CD5E268012A4AD01A6BA8
:1016400022F00F021A63636D284623F0030343F070
:101650000103636502B070BD9368002513F0040FA9
:10166000636D9ED0636D012543F0100328466365CA
:1016700002B070BD0AF014FD2268A565936884F875
:1016800050509D007FF564AF5EE70125284602B00B
:1016900070BDD8682C4A217D0240E06A42EA81325E
:1016A00094F8381002430129DA6025D01A6922F033
:1016B00001021A611A692046616B22F070420A43E6
:1016C0001A61FFF775FE2368B6E75203A3680E049C
:1016D000206B94E7196BA26921F00F01013A0A43CC
:1016E0001A63B0E7144A194B92689B681343D807F2
:1016F0003FF576AF164A6DE7D4E91021A06C0A4396
:10170000144E196942F001020E40E16B02430139A7
:10171000324342EA01421A61CCE740F01C03134312
:1017200043EA06026EE700BFC0FFFF5F88020020A9
:10173000632D3E05C0FFFF6F00200240006002588D
:101740000063025803C0F0FFFCBFFFFF002102400E
:10175000002302401EF800FCF0B590F8505083B012
:101760000026012D019636D00123044615460E466B
:1017700080F85030FFF7E8FD20BB676D05F080432F
:101780001C4D06F48031226843F000433D401A4E60
:101790000B431A4945F00205656595682E403343B1
:1017A000936005E0019B01330193019B8B4215D8A7
:1017B0009368002BF6DB636D23F0030343F0010312
:1017C000636503E0636D43F010036365002384F8F1
:1017D000503003B0F0BD022003B0F0BD636D0022B5
:1017E000012023F0120384F8502043F010036365B6
:1017F00003B0F0BDFDEEFFFFC0FFFE3FFFF7C325C6
:10180000704700BF704700BF704700BF704700BF00
:10181000704700BF90F85020012A4BD00346294A58
:101820000120F0B41C680E68944283F8500008D080
:101830005A6D002142F0200283F850105A65F0BC26
:101840007047214DAA6852070AD5A2685A6D012037
:1018500042F020025A65002283F85020F0BC704705
:10186000A06810F00400F1D1C6B1DFF864C04F6881
:10187000DCF8082022F440423A43CCF80820A4685F
:10188000AA682243D40713D48A68DCF808400F49B9
:10189000164321400E43CCF80860DCE70C498A6807
:1018A00022F440428A60A068AA680243D00703D5A8
:1018B0000020D0E7022070478C683046034A22405F
:1018C0008A60C8E70020024000210240E0F0FFFFEC
:1018D0000023024007490002074BCA6800F4E06099
:1018E00010B44FF6FF0422405DF8044B1343184335
:1018F000C860704700ED00E00000FA05174BDB6898
:10190000C3F3022330B4C3F107051C1D042D28BF07
:101910000425062C18D9033B4FF0FF349C4022EAE3
:1019200004044FF0FF32002802FA05F221EA020116
:1019300001FA03F242EA04024FEA0212D2B206DBD3
:10194000074B1A5430BC704700242346E9E700F0E7
:101950000F00044B1A5430BC704700BF00ED00E08C
:1019600000E400E014ED00E0002807DB00F01F01B8
:1019700001234009024A8B4042F82030704700BFE3
:1019800000E100E000280DDB4309012200F01F0008
:101990000549203302FA00F041F82300BFF34F8FCE
:1019A000BFF36F8F704700BF00E100E00138B0F176
:1019B000807F0DD2074B0022072130B4F025064C62
:1019C0005860104684F823509A60196030BC704704
:1019D0000120704710E000E000ED00E0BFF35F8FF2
:1019E000044A00200449536A23F480335362486058
:1019F000704700BF00ED00E090ED00E0064A40F0C7
:101A00000100064B5860536A43F480335362BFF3BE
:101A10004F8FBFF36F8F704700ED00E090ED00E057
:101A2000124A43789360017811B9D160116170470F
:101A3000436870B4D360C37A047B1B06857A867BC7
:101A400043EA0473447B0B43017A43EAC543C57BF5
:101A500043EA8443447A43EA464343EA054343EA7C
:101A6000042343EA410370BC1361704790ED00E02A
:101A700002680146344B354830B4354C354DA242EE
:101A800018BF9A4204F148040CBF0123002382428C
:101A900008BF43F001034830AA4208BF43F00103E6
:101AA0004835A24208BF43F001034834824208BFD0
:101AB00043F0010300F56270AA4208BF43F001033E
:101AC00005F56275A24208BF43F0010304F5627494
:101AD000824208BF43F001034830AA4208BF43F0E6
:101AE00001034835A24208BF43F001034834824253
:101AF00008BF43F001034830AA4208BF43F0010386
:101B0000A24208BF43F00103824208BF43F0010331
:101B100013B9114B9A4212D1D3B2104D1048103B59
:101B2000104C1040A5FB03531B0903F00702032BC5
:101B3000A25C88BF0430CA65886530BC704722F05B
:101B4000FF008865F9E700BF100002404000024036
:101B50002800024058000240B8040240ABAAAAAADA
:101B600000FCFFFF58190208F8B50446FEF75CFFB9
:101B7000002C00F0FD8023680546964A934249D028
:101B80001832934246D0303293489449834218BF6A
:101B9000934200F148000CBF012200228B4208BF93
:101BA00042F001023031834208BF42F0010230307E
:101BB0008B4208BF42F0010201F55C71834208BF0D
:101BC00042F0010200F55C708B4208BF42F0010256
:101BD0003031834208BF42F0010230308B4208BFEF
:101BE00042F001023031834208BF42F0010230303E
:101BF0008B4208BF42F001023031834208BF42F0FD
:101C000001028B4208BF42F001021AB9744A9342A2
:101C100040F0FA800222002184F835201A6884F806
:101C2000341022F001021A6006E0FEF7FDFE401BB0
:101C3000052800F2968023681A68D107F5D4D4E904
:101C40000220216902431F68D4E905650A43324333
:101C5000644ED4E907102A433E400A43616A0243B6
:101C6000042942EA060200F085801A605A6922F0CF
:101C70000702114359612046FFF7FAFEE26D3F2348
:101C800002F01F02934083602168574B5748CAB245
:101C9000574D814218BF994200F128000CBF012323
:101CA0000023A94208BF43F001032835814208BF41
:101CB00043F001032830A94208BF43F0010328354F
:101CC000814208BF43F001032830A94208BF43F016
:101CD0000103814208BF43F00103002B00F0F380B1
:101CE000444D083A44490120A5FB0252434D1209D4
:101CF0006566114402F01F02890000FA02F22166B3
:101D0000A266A06880281ED06068C6B20138072885
:101D10000E606A601BD8701E07284FD8002B00F099
:101D2000FF80374B374933449B0001228240C4E98E
:101D30001B31626700201860002001234A60606543
:101D400084F83530F8BD002363600B606A600023BF
:101D50000020C4E91B3363670123606584F83530D4
:101D6000F8BD202203230120626584F83530F8BDD8
:101D70000120F8BDD4E90B61A76A46EA010047F0EB
:101D8000040102431A605A6922F007021143002E2F
:101D90003FF470AFB5B1B5F5005F00F0B280022F2F
:101DA00005D9032F7FF466AFF2017FF563AF0123FE
:101DB00040221846626584F83530F8BDD4E91B31FD
:101DC000626FB7E7012F00F09780EDD3022F7FF409
:101DD00051AFE9E7100002404000024070000240AD
:101DE000B80402403F8010FE085402581C540258A8
:101DF00030540258CDCCCCCC0096001680580258F6
:101E00003F960016405902584C4A4D494D488B4266
:101E100018BF934201F128014B4D0CBF0122002253
:101E2000834208BF42F001023C308B4208BF42F0BF
:101E300001023C31AB4208BF42F00102834208BFBD
:101E400042F001028B4208BF42F0010212B93F4A40
:101E500093426CD10220A2683D49002584F83500E8
:101E6000402A186884F8345001EA00015DD0802AC5
:101E700014BF2F464FF4804722692046E668D208F7
:101E80006569DFF8ECC042EAD602A66942EAD502EB
:101E9000E56942EAD6022F4E42EAD5021E44256A7F
:101EA00042EA1512ACFB06560A4331093A4389004F
:101EB0001A60E165FFF7DCFDE26D012302F01F020D
:101EC00093404360E0E6A2F11000234A234D0A4408
:101ED000A5FB0050A82A4FEA101000D8083020496E
:101EE00000F01F05012201441E48AA408900054652
:101EF000A266C4E9181004E7B6F1C07F7FF4BAAE59
:101F000055E7032F3FF6B6AE01A252F827F000BF07
:101F1000AF1D0008A91D0008AF1D0008F91E00082C
:101F2000114B124933449B00FFE61027A4E74022DF
:101F300003230120626584F83530F8BD0854025847
:101F40001C540258305402585854025894540258A1
:101F50000F00FEFFF8ABFDA7F0FBFDBFABAAAAAADE
:101F600000820010800802403F82001040090240B9
:101F7000CDCCCCCC002800F00B810368924A934969
:101F800070B504469248934D834218BF934200F1C6
:101F900030000CBF012200228B4208BF42F0010238
:101FA0004831834208BF42F0010200F56270AB4243
:101FB00008BF42F0010205F562758B4208BF42F08E
:101FC000010201F56271834208BF42F0010248300C
:101FD000AB4208BF42F0010248358B4208BF42F0D5
:101FE00001024831834208BF42F001024830AB424F
:101FF00008BF42F0010248358B4208BF42F001029F
:10200000A1F58F61834208BF42F00102A0F58F6005
:10201000AB4208BF42F00102834218BF8B420CBFA3
:102020000121002112B9002900F0F4801A6822F081
:1020300001021A60002970D121221960596099604B
:10204000D96019615A61DAB26348644D103A644943
:10205000A0FB02021940120902F00700032A4FF008
:102060003F02285C88BF0431E06500F01F00A165D5
:1020700002FA00F088605B4AD9B25B4D5B48AB4224
:1020800018BF934205F128050CBF012200228342AC
:1020900008BF42F001022830AB4208BF42F0010203
:1020A0002835834208BF42F001022830AB4208BF06
:1020B00042F00102834208BF42F0010212B94C4AC9
:1020C000934267D1A1F108024A4D4B490120A5FB7B
:1020D00002524A4D12096566114402F01F0289003E
:1020E00000FA02F22166A26611B1002008606A605F
:1020F0006068411E072919D9002363651846636784
:1021000084F8353084F83430C4E91B33C4E90F3324
:10211000C4E91133C4E9133370BD002221211A60D0
:102120005A609A60DA601A6159618CE72D4A2E4E26
:102130002E4DB34218BF934206F128060CBF012270
:102140000022AB4208BF42F001022835B34208BF6B
:1021500042F001022836AB4208BF42F001022835A6
:10216000B34208BF42F00102AB4208BF42F0010295
:102170001AB91F4A934240F08A80214A214D0244F5
:1021800092000123002003FA01F110606960B3E7B7
:10219000012070471C4AA1F110000F491A44A1FB0D
:1021A0000010A82A4FEA101000D80830174900F094
:1021B0001F05012201441648AA4089000546A2666F
:1021C000C4E9181090E700BF4000024070000240D0
:1021D00058000240A0000240ABAAAAAA581902085F
:1021E00000FCFFFF085402581C5402583054025897
:1021F00094540258CDCCCCCC00960016805802588E
:102200003F96001640590258F0FBFDBF00820010B7
:1022100080080240204A2149214D8B4218BF934239
:10222000204801F13C010CBF01220022AB4208BF53
:1022300042F001023C35834208BF42F001023C30CB
:102240008B4208BF42F001021968AB4208BF42F05E
:10225000010221F00101834208BF42F0010219602E
:1022600012B9114A934210D1002220461A605A60D6
:102270009A60DA601A61FFF7FBFBE16D01222368C7
:1022800001F01F018A404260F5E6012070BD074A57
:10229000074D0244920074E7085402581C54025837
:1022A0003054025844540258945402583F8200104B
:1022B00040090240002800F0C3802DE9F0470446A1
:1022C00090F83400012800F0C080012094F83550C7
:1022D000854284F8340007D000224FF4006384F86C
:1022E00034206365BDE8F087256802278348844E63
:1022F000DFF81CC2B54218BF854206F1300684F8EB
:1023000035704FF000070CBF012000206765654560
:1023100008BF40F001000CF1300C7A4FB54208BF05
:1023200040F001003036D4F86480654508BF40F0C5
:1023300001000CF5627CB54208BF40F0010006F5D3
:102340006276BD4208BF40F001004837654508BFCE
:1023500040F001000CF1480CB54208BF40F001000C
:102360004836BD4208BF40F001004837654508BF08
:1023700040F001000CF1480CB54208BF40F00100EC
:10238000A6F58F66BD4208BF40F00100A7F58F6734
:10239000654514BF824640F0010ABD4218BFB542F0
:1023A0002F680CBF0126002627F001075AEA06060F
:1023B000D4E91A9C2F60D4F858E0C8F8049047D0AC
:1023C000BCF1000F04D0D4E91C707860002E42D01C
:1023D000E76D3F20D4F8088007F01F07B8F1400FE1
:1023E00000FA07F0CEF80800286820F48020286062
:1023F0006B6027D0A960EA60276C2B6823F01E036E
:1024000043F016032B601FB12B6843F008032B60C9
:10241000236E1A68D20303D51A6842F480721A60D8
:10242000BCF1000F05D0DCF8003043F48073CCF829
:1024300000302B68002043F001032B60BDE8F087DB
:1024400001207047AA60E960D6E70220BDE8F08766
:10245000BCF1000FB7D12C4FDFF8B890DFF8B8808F
:102460004D4518BFBD4209F128090CBF01270027BF
:10247000454508BF47F0010708F128084D4508BF4A
:1024800047F0010709F12809454508BF47F0010752
:1024900008F128084D4508BF47F00107454508BF2A
:1024A00047F0010727B9194FBD4218BF276C11D15A
:1024B000E76D4FF00108D4F8089007F01F07B9F155
:1024C000400F08FA07F7CEF804706B6012D0A960CD
:1024D000276CEA60BAF1000F8FD12B6823F00E034E
:1024E00043F00A032B60002F92D02B6843F00403C3
:1024F0002B608DE7AA60276CE960EBE740000240A3
:1025000058000240100402400854025894540258E3
:10251000700002401C54025830540258002860D009
:1025200090F83520022AF8B5034603D08022012016
:102530005A65F8BD0168434A914249D01832914228
:1025400046D030324048414C814218BF914200F1A0
:1025500048003F4D0CBF01220022A14208BF42F0BB
:1025600001024834814208BF42F0010200F5627066
:10257000A94208BF42F0010205F56275A14208BFF9
:1025800042F0010204F56274814208BF42F0010288
:102590004830A94208BF42F001024835A14208BFB5
:1025A00042F001024834814208BF42F00102483043
:1025B000A94208BF42F00102A14208BF42F0010255
:1025C000814208BF42F0010212B9224A91420AD167
:1025D0000422002083F835200B6823F001030B60F0
:1025E000F8BD012070470A6801201D6E22F00E021E
:1025F000DC6D9F6D0A6004F01F040A68A0405C6EE9
:1026000022F001029E6E0A602968DA6E21F4807160
:1026100029607860666032B11168186F5C6F21F4D0
:10262000807111604460002401211A6D83F83440E8
:1026300083F835101AB1184690472046F8BD104669
:10264000F8BD00BF10000240400002407000024090
:10265000A0000240B80402402DE9F04FA44985B023
:10266000A44E00240368A44AD0F858800968934215
:1026700018BFB3420394019108BF0126D8F8005057
:1026800018BF0026D8F8001046D018329B4F9C4C3B
:10269000BB4218BF934207F130070CBF0122002252
:1026A000A34208BF42F001023034BB4208BF42F0EF
:1026B00001023037A34208BF42F0010204F55C7406
:1026C000BB4208BF42F0010207F55C77A34208BF96
:1026D00042F001023034BB4208BF42F00102303701
:1026E000A34208BF42F001023034BB4208BF42F0AF
:1026F00001023037A34208BF42F001023034BB422E
:1027000008BF42F00102A34208BF42F001021AB919
:102710007C4A934240F0EF81C16D082201F01F070F
:10272000BA402A4240F0D88104464FF0040C1020F1
:1027300025FA07F20CFA07FCB840D20705EA0C09A3
:1027400005EA000E60D5704ADFF8B0B1DFF8B0A13D
:10275000934218BF5B450BF1300B0CBF01220022E6
:10276000534508BF42F001020AF1300A5B4508BF39
:1027700042F001020BF1300B534508BF42F0010259
:102780000AF55C7A5B4508BF42F001020BF55C7B01
:10279000534508BF42F001020AF1300A5B4508BF09
:1027A00042F001020BF1300B534508BF42F0010229
:1027B0000AF1300A5B4508BF42F001020BF1300B11
:1027C000534508BF42F001020AF1300A5B4508BFD9
:1027D00042F001020BF1300B534508BF42F00102F9
:1027E0005B4508BF42F0010212B9002E00F045829D
:1027F0005A69120608D5012202FA07F7C8F80870CC
:10280000626D42F002026265B9F1000F55D0002EF0
:102810004AD13D4ADFF8E490394F4B4518BF934207
:1028200009F130090CBF01220022BB4208BF42F06F
:10283000010230374B4508BF42F0010209F130096F
:10284000BB4208BF42F0010207F55C774B4508BF69
:1028500042F0010209F55C79BB4208BF42F0010277
:1028600030374B4508BF42F0010209F13009BB4245
:1028700008BF42F0010230374B4508BF42F0010269
:1028800009F13009BB4208BF42F0010230374B4525
:1028900008BF42F00102BB4208BF42F001021AB970
:1028A000184A934240F0B4811A68920705D5C8F8D7
:1028B00008C0626D42F004026265BEF1000F6DD087
:1028C000002E55D1104A0D4F0D4EBB4218BF9342FA
:1028D00007F130070CBF01220022B34208BF42F0CB
:1028E00001023036BB4208BF42F0010230370DE032
:1028F00088020020100002402800024058000240D8
:1029000070000240B804024040000240B34208BFD9
:1029100042F0010206F55C76BB4208BF42F00102BC
:1029200007F55C77B34208BF42F001023036BB4284
:1029300008BF42F001023037B34208BF42F0010243
:102940003036BB4208BF42F001023037B34208BF05
:1029500042F001023036BB4208BF42F00102B342EE
:1029600008BF42F001021AB9A04A934240F03A81EE
:102970001A68C2F3C0028AB1C8F808001A6857037F
:1029800000F1F7801A68D00503D41A6822F0080213
:102990001A60236C13B120469847E16D01F01F01C6
:1029A00020228A402A4269D02068914B914E924D54
:1029B000B04218BF984206F130060CBF0123002335
:1029C000A84208BF43F001033035B04208BF43F0CE
:1029D00001033036A84208BF43F001033035B0424E
:1029E00008BF43F001033036A84208BF43F001039B
:1029F00005F55C75B04208BF43F0010306F55C764F
:102A0000A84208BF43F001033035B04208BF43F08D
:102A100001033036A84208BF43F001033035B0420D
:102A200008BF43F001033036A84208BF43F001035A
:102A30003035B04208BF43F00103A84208BF43F05D
:102A400001031BB9694B984240F021810368C3F32D
:102A500000139BB1C8F8082094F83530042B0368A4
:102A600000F0908013F4802F036800F0A880190311
:102A700040F1B380E36B0BB120469847636D002BA8
:102A800074D0636DDA071FD5226804205B4984F88F
:102A90003500136823F001031360019BA1FB033190
:102AA000890A02E01368DB0704D5039B01338B42DC
:102AB0000393F7D913680022DF0784F834204CBF52
:102AC0000323012384F83530E36C002B4ED02046DD
:102AD00005B0BDE8F04F18471C6864077FF524AEC9
:102AE0001C6824F004041C60C8F80820426D42F001
:102AF0000102426518E6424A424D434CAB4218BFC0
:102B0000934205F128050CBF01220022A34208BF11
:102B100042F001022834AB4208BF42F001022835DE
:102B2000A34208BF42F001022834AB4208BF42F082
:102B30000102A34208BF42F0010212B9334A934294
:102B400014D1C46D04251A6804F01F04A5400D4279
:102B500068D0560766D51104C8F8045040F1AC801F
:102B6000D30300F1AF80836C002BB1D105B0BDE879
:102B7000F08F1B681E037FF50CAFA36C002B7FF456
:102B80000AAF0BE723F01603226C0360436923F0BE
:102B900080034361002A41D0036823F008030360E7
:102BA0003F230020012203FA01F1236DC8F8081029
:102BB00084F8340084F83520002B88D1D6E713F44C
:102BC00080737FF457AF0268012122F01002026087
:102BD00084F8343084F835104CE7636C002B7FF4B4
:102BE0004BAF4BE71A68C2F38002C4E6B804024058
:102BF000100002402800024040000240B5814E1BF8
:102C0000085402581C540258305402589454025824
:102C10001A68BEF1000F3FF4C1AE53E6A36C002B5F
:102C2000BAD1BDE70225A5400D420CD096070AD5C2
:102C30001404C8F804502ED5D10338D4436C002BAB
:102C40007FF446AF92E70825A5400D428ED01207CB
:102C50008CD519680122002521F00E0102FA04F436
:102C60001960C36CC8F80440426580F8345080F89D
:102C70003520002B7FF42CAF78E71A68B9F1000FEC
:102C80007FF4C7ADBEF1000F3FF488AE18E60368CD
:102C9000C3F34003DDE612F0200208D119680124D5
:102CA00021F00A01196080F8342080F83540C36BA8
:102CB000002B7FF40DAF59E7970603D41A6822F072
:102CC00004021A60036C002B7FF402AF4EE700BFD2
:102CD000406D70470B7A0246012BF0B50AD092F88E
:102CE00035000024012826460AD04FF40063012055
:102CF0005365F0BD92F835000128D1E90064F4D1A4
:102D000092F8340001281AD0156E1B04C8680027F9
:102D1000D5F800C091F809E001382CF4813143EA7C
:102D2000C043384629602968C9B20B4343EA4E23A1
:102D3000234343EA06632B6082F83470F0BD02201F
:102D4000F0BD00BFD0E9193270B5196804461142D0
:102D50000CD0056EC66C296821F4807129605A6018
:102D6000436D43F40073436506B1B047E36EA3B10E
:102D7000D4E91C21106808420FD01868E56C20F4D3
:102D8000807018605160636D43F48063636525B1A2
:102D900020462B46BDE87040184770BD70B504460C
:102DA000FDF742FE4CF250360546012C224C0AD06B
:102DB000D4F810315A071ED5FDF736FE401BB0423D
:102DC000F6D9032070BD23695B0707D5FDF72CFEFC
:102DD000401BB042F5D823695B07F7D42369174A33
:102DE0001A4022D1206910F48030EBD04FF48033A8
:102DF0001046636170BDD4F81031104A134009D0F9
:102E00000F4901208A6942F000421A438A61C4F8DE
:102E1000143170BDD4F8100110F48030D2D04FF4CA
:102E200080321846C4F8142170BD054901208B6911
:102E300013438B61626170BD002000520000EE17E9
:102E4000D8130020F8B52A4F3B7D012B49D001F162
:102E50007843012516460C46B3F5801F3D754FF0AB
:102E6000000332D30220BB61FFF798FF50BB214A19
:102E70000225D2F80C312B43C2F80C31BFF36F8F0F
:102E8000BFF34F8F3368236073686360B368A360D8
:102E9000F368E3603369236173696361B369A361B4
:102EA000F369E361BFF36F8FBFF34F8F2846FFF7DE
:102EB00075FF012D0F4A16D0D2F80C3123F0020312
:102EC000C2F80C3100233B75F8BD2846BB61FFF703
:102ED00065FF0028F6D1074AD36843F00203D360A8
:102EE000CCE70220F8BDD36823F00203D360E9E702
:102EF000D8130020002000520F4BDA68D20706D505
:102F00000E490F4A59605A60DB68DB0711D40A4B3F
:102F1000D3F80C0110F001000AD00849084AC3F8A0
:102F20000411C3F80421D3F80C0100F0010070472C
:102F300070470120704700BF002000522301674501
:102F4000AB89EFCD2DE9F0410D460646FDF76CFD4E
:102F5000304C012D8046304F08BF0424042C2BD068
:102F6000701C19D12C4AD2F8103124EA03035907F6
:102F7000F9D5012D28D0284A2849D2F810310B4024
:102F800030D0274C0120A16941F000411943A161D3
:102F9000C2F81431BDE8F081D7F8103124EA0303F8
:102FA0005B07E6D4FDF740FDA0EB0800B04201D876
:102FB000002ED3D10320EDE7701C1FD1164A1369F0
:102FC0005907FCD4012DD6D11349144A0B691A4074
:102FD00018D1086910F48030DCD04FF480331046EB
:102FE0004B61D7E7D2F8100110F48030D2D04FF403
:102FF00080311846C2F81411BDE8F0813B695B07C7
:10300000D0D4B6E7064C2846A3691343A3614A61AE
:10301000BDE8F08104000080002000520000EE179F
:10302000D813002001F00303032B26D0CA070DD5C7
:103030001E4BDA6822F03002DA60DA6842F00802E9
:103040000243DA60DA6842F08002DA608B0713D557
:10305000164BD3F80C2122F03002C3F80C21D3F820
:103060000C2142F008021043C3F80C01D3F80C21E4
:1030700042F08002C3F80C2170470C4BDA6822F052
:103080003002DA60D3F80C2122F03002C3F80C21B0
:10309000DA680243DA60D3F80C211043C3F80C015C
:1030A0009A6942F010029A61704700BF00200052F6
:1030B0002DE9F047DFF8C8A182B09AF81430012B4F
:1030C00000F0AA8042680F4601240023D10705467C
:1030D0008AF81440CAF8183000F18A8093070DD599
:1030E00002214CF25030FFF72DFF38B101230022AE
:1030F00018468AF8142002B0BDE8F0872C68012C2D
:1031000000F08F804FF0FF333B60D5E902321A4464
:10311000934244D21E029946584CDFF868816B688E
:10312000296903F00200DB073BD5E36823F4E6637B
:10313000E360E26842F004020A433243E260E3687B
:1031400043F08003E36098B1D4F80C3123F4E663D4
:10315000C4F80C31D4F80C3143F004030B4333436F
:10316000C4F80C31D4F80C3143F08003C4F80C31AE
:1031700001214CF25030FFF7E5FEE268034602EA17
:103180000802E2606A68910721D473BBD5E9023274
:103190001A4409F1010906F580764A45BFD8002393
:1031A000A5E70028F5D0D4F80C3123F4E663C4F881
:1031B0000C31D4F80C3143F004030B433343C4F80F
:1031C0000C31D4F80C3143F08003C4F80C310221E7
:1031D0004CF25030FFF7B6FED4F80C21034602EA59
:1031E0000802C4F80C21002BD0D0C7F800907EE76D
:1031F00021464CF25030FFF7A5FE58B16B689A0794
:103200007FF574AF02214CF250300194FFF79AFE23
:10321000019B6CE76A6861E70223184602B0BDE8CB
:10322000F08769682869FFF7FDFE6A6812F00103FC
:1032300014D192077FF55BAF02214CF2503001931D
:10324000FFF780FE0D490028019BD1F80C2118BF23
:10325000012322F00802C1F80C2148E721464CF274
:103260005030FFF76FFE0549031CCA6818BF0123E1
:1032700022F00802CA606A68DBE700BF0020005243
:10328000D8130020FBF8FFFF2DE9F04F0F6883B043
:10329000002F00F0C8808C460025DFF83882DFF868
:1032A00038E20123AB4013EA070600F0B780DCF8F0
:1032B000041021F01009B9F1020F40F0B7804FEA75
:1032C000D50905F0070A4FF00F0BDCF8102000EBD2
:1032D00089094FEA8A0AD9F820400BFA0AFB02FA58
:1032E0000AF24FEA450A24EA0B044FF0030B22438B
:1032F0000BFA0AFB01F00304C9F820206FEA0B0265
:10330000D0F8009004FA0AF402EA090944EA090430
:1033100004608468C1F3001902EA040BDCF80C4075
:1033200009FA05F904FA0AF444EA0B0484604468D3
:1033300024EA030349EA03034360C468DCF8083065
:10334000224003FA0AF31343C360CB0066D5D8F8D2
:10335000F44025F0030905F003030F2244F00204B2
:1033600009F1B0499B00C8F8F44009F58069D8F824
:10337000F44002FA03FA04F0020401944C4C019A5E
:10338000A042D9F8082022EA0A0220D004F580647D
:10339000A04269D0474CA04261D0474CA0426DD0BA
:1033A000464CA0426FD0464CA04262D0454CA04251
:1033B0006ED0454CA04270D0444CA04272D0444CD8
:1033C000A0420CBF09240A2404FA03F31A43C9F8E3
:1033D0000820CC03DEF800306FEA06024CBF33430E
:1033E00013408C034FF0B044CEF80030DEF80430C8
:1033F0004CBF33431340CEF804302368CC024FF067
:10340000B0444CBF3343134089022360636854BF08
:1034100002EA03061E434FF0B0435E60013537FAFF
:1034200005F37FF43EAF03B0BDE8F08F4FEA450AE5
:103430000322D0F800B009F1FF3901EA020402FAD0
:103440000AF2B9F1010F6FEA020204FA0AF402EA81
:103450000B0B44EA0B0404603FF66FAF59E70224FC
:1034600004FA03F31A43B2E7012404FA03F31A43FC
:10347000ADE7052404FA03F31A43A8E7032404FA8A
:1034800003F31A43A3E7042404FA03F31A439EE761
:10349000062404FA03F31A4399E7072404FA03F312
:1034A0001A4394E7082404FA03F31A438FE700BF92
:1034B0000000025800080258000C02580010025880
:1034C0000014025800180258001C0258002002582C
:1034D000002402580044025880000058002900F0DF
:1034E0009F8000232DE9F04FDFF874A183B0DFF84F
:1034F0007491DFF87481DFF874B14FF0010E0EFAA9
:1035000003F515EA010201926FD023F0030603F0E0
:1035100003020F27484556444FEA8202D6F808C0F6
:1035200007FA02F707EA0C0C21D058451CD0474C8B
:10353000A04266D0464CA04268D0464CA0425BD028
:10354000454CA0426DD0454CA0426FD0DFF820E141
:10355000704560D0DFF81CE170456CD0DFF818E1F1
:1035600070456DD04FF00A0E0EFA02F200E0002214
:10357000944518D1D6F808C0019A2CEA0707D4431D
:103580004FF0B042B760D8F800602640C8F800603D
:10359000D8F804602640C8F8046016682640166013
:1035A00056683440546003245A00D0F800C00F27F6
:1035B00004FA02F223FA04F603F0070400EB86068D
:1035C0004CEA020CA400D243C0F800C0A740346A01
:1035D00024EA07043462846814408460446824EA5E
:1035E00005054560C4682240C260013331FA03F228
:1035F00083D103B0BDE8F08F4FF0040E0EFA02F253
:10360000B6E74FF0020E0EFA02F2B1E74FF0030EEA
:103610000EFA02F2ACE74FF0070E0EFA02F2A7E73D
:1036200070474FF0050E0EFA02F2A1E74FF0060EBA
:103630000EFA02F29CE74FF0080E0EFA02F297E73C
:103640004FF0090E0EFA02F292E700BF000802588E
:10365000000C0258001002580014025800180258BA
:10366000000400580000025880000058000402586E
:10367000001C025800200258002402580369194215
:1036800014BF01200020704702B90904816170470E
:103690002DE9F04790F8B84284B0012C9DF83070C5
:1036A0009DF834C0BDF838E028D0054601EB810410
:1036B0004FF0010902F07F0005EBC40485F8B892D1
:1036C000D6094FF0000984F8383084F8391084F8AE
:1036D0003FC084F83C7084F83A0084F83B6084F87A
:1036E0003D902868A4F840E00097CDE901CE06F0AF
:1036F000DFFD85F8B89204B0BDE8F087022004B081
:10370000BDE8F08790F8B832012B0BD0012310B53B
:103710000446006884F8B83206F032FF002084F8CE
:10372000B80210BD0220704700284AD090F8B93284
:103730002DE9F04103F0FF028AB007460468002B30
:1037400039D0204603236D4607F1040887F8B932C3
:10375000E36B3C4613F4807308BF3B6106F05EFCEC
:1037600054F8106B0FCC0FC50FCC0FC594E80300B5
:1037700085E8030030463E466D4698E80E0006F0A8
:10378000DBFB0121386806F051FC56F810CB0FCE58
:103790000FC50FCE0FC594E8030085E8030060460F
:1037A00098E80E0006F076FC0123002087F8B93275
:1037B0000AB0BDE8F08180F8B82211F0CDFF38687A
:1037C000C0E70120704700BFF0B58C009DF814C021
:1037D000069F6518BDF81C609DF820E000EBC5054C
:1037E00085F83B2085F83F30BCF1000F38D185F8D3
:1037F0003DE04FF0030E651800EBC50585F842E08B
:10380000032B15D8DFE803F0023A2F2FBCF1010F8C
:103810000ED16AB96318002E3FD1012200EBC30319
:1038200083F851206318022200EBC30383F842207F
:1038300063182822002400EBC30302FB010283F873
:10384000391002F13801027C006883F85C40DC64C6
:1038500083F85D40C3E91176BDE8F04006F0C4BDD1
:103860004FF0020EC7E7631800EBC3036AB993F881
:1038700051503DB1022283F84220D9E7631800225B
:1038800000EBC30383F84220D2E793F85020002ACC
:10389000F8D0022283F84220CAE700EBC30393F872
:1038A0005120002AEED0BDE72DE9F04F056885B024
:1038B0000446284606F0EAFB012802D005B0BDE820
:1038C000F08F206806F0DEFB0028F7D0206806F0B5
:1038D000D9FB10F4001F206802D04FF4001343619D
:1038E00006F0D0FB10F4801F206802D04FF4801344
:1038F000436106F0C7FB10F0806F206802D04FF0E4
:103900008063436106F0BEFB10F0020F206801D017
:103910000223436106F0B6FB10F0005F206850D12F
:1039200006F0B0FBC20100F1E380206806F0AAFBBC
:10393000030700F1D680206806F0A4FB10F0007F9A
:1039400020684ED106F09EFBC306B7D52568AB694B
:1039500023F01003AB612E6AC6F34342022A2BD137
:10396000C6F30A18B8F1000F26D006F00F0606EBD2
:10397000860704EBC707796CF1B14246284606F08A
:103980006DFB05F5A0657301786CF96CEE18B74A0C
:1039900040444144366978643240F9645AB1EA5887
:1039A00022F0804242F00042EA5097F8503083F013
:1039B000010387F850302568AB6943F01003AB6111
:1039C0007CE74FF000534361D5F84034D907A7D4C2
:1039D000204611F01FFF0121206806F0EBFB206854
:1039E0009EE706F0C7FDA1688146002900F0BA8075
:1039F00005F5A065206800263AE05A0740F1B78037
:103A00000423BB60FB6843F00203FB60BB689B05BB
:103A100000F1E780BB68D80740F1B6802369002B2E
:103A200040F041814FEA880303EB080C00224FF07D
:103A3000010E04EBCC0CCCF858208CF85DE0C7F8F4
:103A400008E09CF83F2012F0FD0F00F05E81032A91
:103A500000F0AB81434404EBC30393F8502082F0A1
:103A6000010283F85020A168206801368E427AD284
:103A700006F00F0329FA03F3DF07F6D55FFA86F89D
:103A800000F5A06A73014FEA481B5B590BEB0A076C
:103A900013F4004FBB68B0D113F004036DD1BA68C2
:103AA00012F0200200F0AB8008EB88024FF0200CEF
:103AB00004EBC202C7F808C092F83DC0BCF1010F88
:103AC000D3D182F83D304FF0020CFB68414682F8BA
:103AD0005CC043F00203FB6006F052FDA168206861
:103AE000C3E7204611F08EFE20680823436123E7D8
:103AF0002668D6F840340293D6F840340393039BEB
:103B000023F02E030393029B9B0707D5029BDF073D
:103B100000F1F780039B43F002030393029B180715
:103B200015D5039B43F008030393029B590740F10B
:103B3000E480A169022900F0F880E368012B03D139
:103B40004EF66022C6F80424204611F069FE029B5E
:103B50009A0603D5039B43F020030393039BC6F807
:103B60004034E2E620684FF000734361EAE6BB6848
:103B70009B067DD52023BB6048E70423BB60FB6820
:103B800043F00203FB6070E7BB68990740F198803F
:103B90004FEA8803FA6803EB080122F0020204EB03
:103BA000C101FA6091F85D20012A00F0BB80052A6E
:103BB00000F0B880062A00F03481082A00F0318134
:103BC000032A00F09781282303FB084393F85C2025
:103BD000022341462046BB6011F020FEA168206808
:103BE00043E7FB684146206843F00203FB6006F0B0
:103BF000C7FC4FF40073A1682068BB6035E7BB6861
:103C00005B0600F1B380BB6813F4007340F0CA8018
:103C1000BA68D20700F1F180BB6813F0080340F0E6
:103C20004F81BA68D20640F1178108EB8802032160
:103C300004EBC202936592F83D3082F85D1043B9FF
:103C4000282303FB084393F83C2012B9012283F890
:103C50003D20FB68414643F00203FB6006F090FC08
:103C60001023A1682068BB60FFE600BF0000F81FBA
:103C7000BB68190764D4BB685A057FF5C7AEFB68FB
:103C8000414643F00203FB6006F07AFC102208EB89
:103C900088030821BA604FF4806204EBC30383F801
:103CA0005D10BA60B2E64FEA8803386903EB080298
:103CB000C0F3120004EBC202916C091AD164B3E69E
:103CC000BB68206813F080037FD1BA68D20667D53D
:103CD00008EB880104EBC10191F83F20032A00F0B2
:103CE0001A8112F0FD0204D123698A65002B00F0CD
:103CF00033811023A168BB60B7E6204611F094FD24
:103D000025E7204611F082FD04E7FA684146206865
:103D100042F002020193FA6006F032FC1022019B8D
:103D2000BA6097E681F85C2052E7029B206803F4B2
:103D3000C023B3F5802F18BF012106F03BFA03E73B
:103D4000FA6808EB880305214FF0100C42F0020ED0
:103D500004EBC3030822C7F80CE083F85D1041466A
:103D6000C7F808C0BA6006F00BFC4FE608EB880302
:103D70004FF0010C4FF0040E414604EBC30383F8EF
:103D80003DC0D7F80CC09A654CF0020283F85DE0A4
:103D9000FA6006F0F5FB4023A1682068BB6064E68A
:103DA000A16862E6FB6841461EE75BF80A007246BE
:103DB0004146019340F000504BF80A0020468CF831
:103DC0005CE011F02BFD019B44E608EB8803FA68E8
:103DD0004FF0060E414604EBC30342F0020C9A6D0D
:103DE000C7F80CC0013283F85DE09A6506F0C8FBA5
:103DF0008023A1682068BB6037E6FA6808EB880C6E
:103E0000414642F0020204EBCC08C8F85830FA6090
:103E100006F0B6FB0123A1682068BB6088F85D301E
:103E200023E603EB080204EBC202916D0131032982
:103E300059D82820022200FB084081655BF80A104F
:103E4000434421F0804104EBC30341F0004183F877
:103E50005C204BF80A10BBE6BB681A066AD4BB6844
:103E60005B0500F18980BB689A077FF5FEAD2822CB
:103E7000F96802FB084221F0020192F85D30F96016
:103E8000012B00F09380032B00F08B80042B00F0BB
:103E90008880052B00F0B280062B00F09680082B5E
:103EA00000F09380282341460222204603FB084865
:103EB000BA6098F85C2011F0B1FCA1682068D4E5E4
:103EC0000823414608EB8808BB60FB6843F0020307
:103ED000FB6006F055FB052204EBC803A1682068CF
:103EE00083F85D20C1E528210020042201FB084160
:103EF0008865A3E75BF80A3028214FF00200022210
:103F000023F0804301FB084143F0004381F85C004B
:103F10004BF80A305CE6FA684FF0280C41460CFB7F
:103F2000084C42F00202CCF85830FA6006F028FB48
:103F30002068DEE6FB68414643F00203FB6006F0C2
:103F40001FFB28230620802203FB0848A16888F86D
:103F50005D002068BA6088E5FB6828224FF0030CFA
:103F6000414602FB084243F0020382F85DC0FB6059
:103F700006F006FB2068BCE6FB68414643F00203FE
:103F8000FB6006F0FDFA282310214FF4806203FB4A
:103F900008480823B9602068BA60A16888F85D30D5
:103FA00063E54FF0020382F85C307BE792F83F1044
:103FB00082F85C308B1E012B3FF674AF92F85130C3
:103FC00083F0010382F851306CE7282303FB084398
:103FD0009A6D0132032A9A6513D9002204219A6549
:103FE0005BF80A30282223F0804302FB084243F0AA
:103FF000004382F85C104BF80A3053E782F85C30DB
:1040000050E70221ECE700BF38B590F8B832012B39
:104010000ED004460125006884F8B85205F0F6FF7A
:104020002946206806F00EF9002084F8B80238BD51
:10403000022038BD90F8B832012B0BD0012310B507
:104040000446006884F8B83206F0F2FA002084F8DA
:10405000B80210BD02207047006806F0D3B800BF58
:1040600001EB810100EBC10191F85C00704700BFDA
:1040700001EB810100EBC101C86C7047006806F0DC
:1040800011B900BF006806F001B900BF70B5044661
:104090000D4616466A1C23682CD19A69900727D4CE
:1040A0009A69D106F9D59A699106FCD5202210218A
:1040B000D961DA619A69900701D500229A629A69FA
:1040C000D10703D49A6942F001029A615A6800212B
:1040D0001B4E2025012032405A60636C84F840104A
:1040E00043F00403636484F8415084F8421070BDC7
:1040F000002070BD9A699207FAD49A69D0061BD441
:10410000FCF792FC801BA84201D8002DC2D1636C41
:104110002021002201200B4384F84020636484F8AE
:10412000411084F8422070BDFCF77EFC801B854264
:10413000EDD3002DEBD023689A699206F4D5B5E74C
:1041400000E800FE70B504460D46164623689A69DD
:10415000920649D49A69D20626D5681C38D19A6944
:104160009106FCD520221021D961DA619A69900765
:1041700001D500229A629A69D10703D49A6942F064
:1041800001029A615A680021184E20250120324010
:104190005A60636C84F8401043F00403636484F84D
:1041A000415084F8421070BDFCF73EFC801BA842D1
:1041B00001D8002DCAD1636C2021002201200B43BD
:1041C00084F84020636484F8411084F8422070BD74
:1041D0009A699206C6D4FCF727FC801B8542EAD375
:1041E000002DE8D02368B8E7002070BD00E800FE8D
:1041F00000284DD0F8B590F84130044603F0FF0296
:10420000002B40D02421E568D4E9003284F8411025
:10421000012D186822F07061A26820F0010018607A
:104220001961996821F40041996028D042F4044250
:10423000022D9A6002D14FF400625A605A68002140
:1042400014482027A6691043D4E9042558602A435E
:10425000D868E56942EA0622266A20F40040354320
:10426000D8600846DA601D601A6842F001021A60E0
:10427000616484F84170216384F84210F8BD42F40F
:1042800000429A60DAE780F840200AF08FF9B9E737
:1042900001207047008000022DE9F84390F841406A
:1042A000089E202C6FD190F84040012C6BD098468E
:1042B000012391460F4680F840300446FCF7B4FBDA
:1042C000054604E0FCF7B0FB401B192875D82368AD
:1042D000986910F40040F5D110222121C4F82490EF
:1042E000C7F3090784F8411084F842206064A4F8F9
:1042F0002A80628D6063FF2A48D8618D484A89B25E
:1043000058683A43DFF824E15FFA81FC218500EA2E
:104310000E0142EA0C420A435A60DFF81481DFF8CA
:10432000149147EA0808638D2A46314620469BB21D
:10433000002B62D0FFF7AAFE00285BD1606A2168DB
:1043400010F8012B238D8A62628D013B6062013A75
:104350009BB292B223856285628D92B2002AE2D02E
:10436000002BE0D1701C1DD18B691A06FCD5638D22
:10437000FF2B30D94B68FF2203EA0903228543EA69
:1043800008034B60CFE70220BDE8F8835A68FF209E
:10439000DFF898C0234902EA0C02208539430A431A
:1043A0005A60BAE78B691B06E1D4FCF73DFB401B62
:1043B000864202D30EB12168D4E7636C202100222B
:1043C00001200B4384F84020636484F8411084F892
:1043D0004220BDE8F883628D47F00073486892B2CE
:1043E00000EA09005FFA82FC228543EA0C4303439A
:1043F0004B6098E70120BDE8F883FFF7A3FE002893
:10440000F8D123682021084DD9615A682A405A60A2
:1044100084F8411084F8400084F84200B4E700BFFB
:10442000002000820020FF8100E800FE009800FCD0
:104430000000FF01009C00FC2DE9F047044690F8C5
:104440004100202865D12668B06910F4004060D191
:1044500094F84050012D5CD021271025DFF844C18D
:1044600084F8417084F84250012560646385C4F883
:104470002CC0638D444FFF2B626284F84050676309
:104480004AD9FF234FF080782385D4F838C0BCF197
:10449000000F59D096464FF000093C480D46DFF812
:1044A00008A106F12802CCF84C007146CCF83CA0DB
:1044B0006046CCF84090CCF85090FDF7FBFE002809
:1044C0004FD12268C5F30905314B5168DFF8CCC0E4
:1044D0002B43268D01EA0C01656B0B43F1B243EAD5
:1044E00001432C4943EA08038D425360638D84F8ED
:1044F0004000A3EB06039BB263853FD0BD423DD095
:10450000F22113680B431360136843F48043136074
:1045100000E00220BDE8F087638D9BB223857BBB62
:10452000C1F309011C4A776818460A431B491C4D10
:10453000394065630A437260326884F8403042F063
:10454000F2023260BDE8F087202384F840C00120E9
:1045500084F8413084F842C0636C43F080036364A4
:10456000D8E7202384F84090012084F8413084F873
:104570004290636C43F010036364CBE79021C0E783
:104580004FF0007881E700BF8153000821570008F1
:1045900000200080794C000800200082009800FC78
:1045A000495100080000FFFF994E0008036810B44D
:1045B000446B99691A681CB123465DF8044B18478F
:1045C0005DF8044B704700BF704700BF704700BFE5
:1045D000704700BF704700BF704700BFF8B5046860
:1045E000C368A169A269022BA668C1F300414FEA22
:1045F0001242E76802F0FE020DD1C6F3090682EA14
:10460000D61313F0060310D1826C01328264826CDF
:10461000022A16D0F8BD2368002623F0B8032360D1
:1046200080F84060FFF7D8FFF8BD2368002607F048
:10463000FE0223F0B803236080F84060FFF7CCFF50
:10464000F8BD082783643246E76180F84030FFF701
:10465000C3FFF8BD704700BF704700BF704700BF81
:10466000704700BF704700BF90F841203E4B283A8A
:1046700070B500250446022A80F84250C362458581
:10468000406C236841EA0001616494F841203CD801
:10469000282694F8410032403040B2421A6814BFD4
:1046A0006FF0F6016FF04601B042304818BF6FF06E
:1046B000F6010A401A6084F84160606325631A6855
:1046C00012F4804213D01A68A16B22F480421A605F
:1046D000D1B1274A002308460A6584F84030FDF727
:1046E0001DFF88B1A06BBDE87040036D18471968C5
:1046F00011F400411AD194F84130602B2BD084F88A
:1047000040102046FFF7ACFF70BD94F841201A68B6
:1047100022F0FE021A6094F84120602A02D0202282
:1047200084F84120002222636263C8E71968E56BC0
:1047300021F400411960002DE6D00D4B28462B6571
:1047400084F84020FDF7EAFE0028DDD0E06BBDE8EC
:104750007040036D1847202384F84010204684F8E9
:104760004130FFF77FFF70BD0000FFFF5549000893
:10477000294F00080368202270B504460D461868CA
:10478000DA6194F8412094F8412019686F4E21F0C5
:10479000FE011960596841F4004159605A6832407D
:1047A0005A609A69910701D500229A629A69D207E4
:1047B00003D49A6942F001029A61460433D5A26B90
:1047C0001AB111684A6892B2628569070AD55A6AB5
:1047D00025F00405636A1A70636A228D01336362EF
:1047E000002A3CD1638D9BB21BB1636C43F0040380
:1047F00063640026266384F84260636C6663002B62
:1048000034D1E26A12F5803F13D194F8412020465A
:1048100084F84030222A4FF0200284F8412077D0DB
:10482000FFF7D6FE70BD0004CFD5E26B002AC8D1D9
:10483000CBE784F8423094F84120292A6BD094F8D1
:1048400041202A2A4BD04249202300222046E162FF
:1048500084F8402084F84130FFF7FCFE70BD638D82
:10486000013A013B22859BB26385BBE7616C204620
:10487000FFF7FAFE94F84130282BD3D1344B202295
:104880006663E362266384F841206A07236884F83C
:10489000426013D55A6A636A1A70636A228D0133C3
:1048A0006362002A50D0618D013A23680139228564
:1048B0008AB26285626C42F00402626494F841201C
:1048C000102594F8412000211A68204622F0FE02AB
:1048D0001A60DD6184F84010FFF7BCFE70BD222233
:1048E00028212568204684F84110226394F841105D
:1048F0002E6801F02801282914BF6FF0F4026FF030
:10490000440232402A6084F84030FFF763FE9AE7A1
:10491000FFF760FE70BD212228212568204684F81B
:104920004110226394F841102E6801F028012829D3
:1049300014BF6FF0F2026FF0420232402A6084F836
:104940004030FFF745FE7EE72368B7E700E800FE4A
:104950000000FFFF90F84030012BF0B50D4683B00A
:10496000C16A00F0C2800123EF06044680F840309F
:1049700024D5D60622D5438D06689BB2002B40F085
:10498000A48090F84100282803D1B1F1007F00F005
:10499000ED8094F84130292B4FF01003F36103D1DF
:1049A00011F5803F40F0B780A90602D5930600F1CB
:1049B0009F80002084F8400003B0F0BD6E0711D442
:1049C0002B0751D517074FD594F8413003F0280332
:1049D000282B00F0FD80216808200023C86184F89E
:1049E0004030E1E75007EBD5638D9BB27BB1206887
:1049F00025F00405636A406A1870638D666A208D2D
:104A0000013B01369BB20138666263852085638D68
:104A100011F5803F9BB2C7D0002BC5D184F842303E
:104A200094F84110292900F0D98094F841102A29DE
:104A3000BAD1282722212668204684F841702163B4
:104A400094F84110376801F028010192282914BF19
:104A50006FF0F4016FF044013940316084F8403068
:104A6000FFF7B8FD019A9FE7AE079DD590079BD54C
:104A7000638D9BB2002B40D131F0807194D184F8CA
:104A8000421094F84130292B00F0D68094F8413040
:104A90002A2B89D1282722232668204684F84170B2
:104AA000236394F84130376803F028030192282BE0
:104AB00014BF6FF0F4036FF044033B40336084F89D
:104AC0004010FFF787FD019A6EE71023F361436CF6
:104AD00043F00403436431F080737FF465AF416CAD
:104AE0000192FFF7C1FD019A5EE7022003B0F0BD1D
:104AF00029462046FFF73EFE5BE7606A236810F810
:104B0000016B218D9E62638D01396062013B2185BD
:104B10009BB2638548E7B3699B0701D50023B36265
:104B2000B369DF0703D4B36943F00103B361002322
:104B300084F8423094F8411029296AD094F8411041
:104B40002A297FF431AF282722210192204684F8B8
:104B50004170216394F84170316807F02807282FCD
:104B600014BF6FF0F4076FF0440775E72021414848
:104B70006363E062236384F84110690784F842307C
:104B800013D5716A636A1970636A218D0133636298
:104B900000296CD0638D01392668013B21859BB2C9
:104BA0006385636C43F00403636494F8413000212F
:104BB00094F84130102733682046019223F0FE0319
:104BC0003360F76184F84010FFF744FD019AEBE68B
:104BD00020460192FFF702FD019AE5E628272121F0
:104BE0002668204684F84170216394F841103768A4
:104BF00001F028010192282914BF6FF0F2016FF033
:104C000042013940316084F84030FFF7E1FC019AFD
:104C1000CAE6282721210192204684F841702163A9
:104C200094F84170316807F02807282F14BF6FF0FF
:104C3000F2076FF04207E4E7282721232668204681
:104C400084F84170236394F84130376803F02803F7
:104C50000192282B14BF6FF0F2036FF042033B4028
:104C6000336084F84010FFF7B3FC019A9CE6266895
:104C70009BE700BF0000FFFFF8B590F84030C56A21
:104C8000012B00F0CC800123044680F84030C80698
:104C900070D5D3066ED5930B2668D20B03F00100B6
:104CA0001343DF077FD5D4E90E73BBB1D20715D507
:104CB000DFF8E0E11A680EF1300E53680EF1300EA5
:104CC000B3FA83F30EF1300E5B090EF55C7E0EF144
:104CD000300E0EF1300E002B40F0B480002F00F0AB
:104CE000A380002800F0A08000203A685368B3FA3F
:104CF00083F35B09002B00F0948094F84130B5F108
:104D0000007FDBB252D1282B50D1002320226048F3
:104D10006363E062236384F841204A0784F84230E9
:104D200014D5726A636A1A70636A228D01336362F2
:104D3000002A00F0AB80638D013A2668013B228592
:104D40009BB26385636C43F00403636494F8413061
:104D5000102194F8413000223368204623F0FE03EE
:104D60003360F16184F84020FFF774FC002084F880
:104D70004000F8BD0E0707D48806F7D59306F5D591
:104D80002046FFF7F7FCF1E71507F5D594F8413019
:104D900003F02803282B5DD0236808220020DA6165
:104DA00084F84000E5E71023F361DFE794F8413031
:104DB000292B4FF01003F361D8D115F5803FD5D0E2
:104DC000B3699B0701D50023B362B369DF0703D43E
:104DD000B36943F00103B361002384F8423094F8CF
:104DE0004120292A3AD094F841202A2ABED12821EC
:104DF0002222204684F84110226394F84120316831
:104E000002F02802282A14BF6FF0F4026FF0440267
:104E10000A40326084F84030FFF7DCFBA6E702204E
:104E2000F8BD00287FF469AF1023F361636C43F091
:104E30000403636435F0807398D1616C2046FFF7FA
:104E400013FC93E7002F3FF458AF00283FF455AF11
:104E500001204AE72046FFF7C1FB87E728212122EE
:104E6000204684F84110226394F84120316802F012
:104E70002802282A14BF6FF0F2026FF042020A40A3
:104E8000326084F84030FFF7A3FB6FE726685DE7E8
:104E90000000FFFF2800024010B5846B22681368F1
:104EA00023F480431360638D9BB25BB9636B1C4931
:104EB0008B4227D01B498B4224D01368F4210B432B
:104EC000136010BD616A208D638D0144FF2B616208
:104ED00015D8608D80B2034620852832A06BFDF77F
:104EE000E9F9B0B9636B0E4A934210D00D4A934270
:104EF0000DD0F421226813680B43136010BDFF230B
:104F00001846E9E7136860210B43136010BD602168
:104F1000F0E720461021BDE81040FFF7A5BB00BF19
:104F2000794C000881530008836B002293F84110EC
:104F300010B56029D3E90E402265026503D01846FA
:104F4000FFF78EFB10BD2022184683F84120FFF7A3
:104F500089FB10BD70B504462022774D00202368E0
:104F6000DA615A682A40754D5A6020636063C8064A
:104F7000E56205D51022DA61626C42F004026264D7
:104F80009A69910701D500229A629A69D20703D4DF
:104F90009A6942F001029A6194F8411094F8410034
:104FA00001F028011A6800F02800282914BF6FF0CA
:104FB000F6016FF04601282818BF6FF0F6010A408D
:104FC0001A60626C94F8411060290DD0003218BF4D
:104FD00001224AB994F84130212B00F08E8094F8D8
:104FE0004130222B7AD070BD616C002094F84120B2
:104FF000524D84F84200283AE5626085022A656CC9
:1050000041EA0501616494F8412033D8282694F8D8
:10501000415032403540B2421A6814BF6FF0F60179
:105020006FF04601B542464D18BF6FF0F6010A40D9
:105030001A6084F8416020631A68656312F4804244
:105040002CD1196811F400413ED01968E56B21F4A8
:1050500000411960002DC6D03A4B28462B6584F8D4
:105060004020FDF75BFA0028BDD0E06BBDE8704042
:10507000036D184794F841201A6822F0FE021A6066
:1050800094F84120602A02D0202284F84120002296
:10509000226362631A6812F48042D2D01A68A16B4C
:1050A00022F480421A6000299DD0264A0023084637
:1050B0000A6584F84030FDF731FA002893D0A06BE0
:1050C000BDE87040036D184794F84130602B26D03E
:1050D00084F840102046FFF7C3FA70BD2023204615
:1050E00084F8402084F8413094F8423084F842201B
:1050F000402B1DD0FFF76AFA70BD2023204684F8AC
:10510000402084F8413094F8423084F84220402B0B
:1051100002D0FFF759FA70BDFFF79EFA70BD202349
:1051200084F84010204684F84130FFF79BFA70BDA8
:10513000FFF794FA70BD00BF00E800FE0000FFFF1B
:1051400055490008294F000890F84030012B00F025
:10515000AF800123F0B5CF0683B004460D4680F83A
:1051600040301AD5D60618D503681021D961416C94
:1051700041F0040141649969880701D500219962D1
:105180009969C90761D5A90602D5930600F19280F5
:10519000002084F8400003B0F0BD6F0711D4A807C9
:1051A00022D5910720D5606A236810F8016B218D04
:1051B0009E62638D01396062013B21859BB26385EC
:1051C000E1E75607EBD5216825F00405636A496AD3
:1051D0001970638D606A218D013B01309BB20139EA
:1051E000606263852185CEE72B0616D46E06CAD58C
:1051F0005006C8D5638D9BB2002B52D121684B68F5
:1052000013F00073BFD1E06A10F5803F40F0888052
:105210004B6843F480434B60B5E75706B3D5638DC5
:1052200021689BB2B3B1238DA3B94B68608DC3F3E2
:105230000903FF2860D94E68FF274F48278506409D
:105240004E48304303434B609DE7996941F00101AB
:10525000996198E74B6813F0007322D184F84230CB
:10526000202794F84100019221282CD0122684F89E
:10527000417063632046266394F84170D1F800C002
:1052800007F02807282F14BF6FF0F4066FF04406CC
:1052900006EA0C060E6084F84030FFF797F9019A91
:1052A00071E7402120460192FFF7DEF9019A6AE793
:1052B0000220704720462946FFF74CFE002084F864
:1052C000400003B0F0BD112684F8417063632046AE
:1052D000266394F841600F6806F02806282E14BF54
:1052E0006FF0F2066FF042063E400E6084F84030E8
:1052F000FFF76AF9019A46E7608DE66A80B216F513
:10530000803F20852DD0E76AC0B24E68DFF868C0C4
:1053100006EA0C063E4346EA004003434B6032E790
:1053200084F84230202794F8410001922128CAD005
:10533000122684F8417063632046266394F8416026
:105340000F6806F02806282E14BF6FF0F4066FF0E1
:1053500044063E400E6084F84030FFF737F9019A6A
:1053600011E74E68C0B2044F3E4046F0007646EA70
:10537000004003434B6006E7009C00FC0000FF0177
:10538000F8B590F84030012B7DD00123CD060446BE
:1053900080F8403023D5D00621D510222368616BD8
:1053A0007B48DA61626C814242F00402626468D038
:1053B000784A914265D0F4211A680A431A609A69C2
:1053C000910701D500229A629A69D20703D49A699B
:1053D00042F001029A61002084F84000F8BD0F06F7
:1053E00031D5560645D523681A6822F040021A6066
:1053F000628D92B2002A48D05D68618DC5F30905BF
:10540000FF296AD8628DE06A91B210F5803F21854C
:10541000C8B200F08980E66A00045A685E4F3A40DC
:105420002A43324302435A60628D521A92B2628515
:1054300094F84120222A1A680CBF42F4004242F438
:1054400080421A60C7E74D0613D5500611D5638D0B
:105450009BB2002B3CD12268536813F00073BAD181
:10546000E16A11F5803F40D1536843F480435360B3
:10547000B1E78B06AFD59206ADD52046FFF76AFDA2
:10548000A9E7602198E70220F8BD5A6812F000727F
:105490001ED184F84220202594F84110212947D0BC
:1054A000122184F8415062632046216394F84150F0
:1054B0001E6805F02805282D14BF6FF0F4016FF069
:1054C00044013140196084F84020FFF77FF882E7FB
:1054D00040212046FFF7C8F87DE7FF224FF47F0008
:1054E0004FF080762285114697E784F842302025D8
:1054F00094F84110212933D0122184F8415063637C
:105500002046216394F84110156801F028012829EC
:1055100014BF6FF0F4016FF044012940116084F86A
:105520004030FFF753F856E74FF00076000474E779
:10553000112184F8415062632046216394F8415060
:10554000196805F02805282D14BF6FF0F2056FF0DB
:1055500042052940196084F84020FFF735F83AE702
:10556000112184F8415063632046216394F841106F
:10557000156801F02801282914BF6FF0F2016FF0BF
:1055800042012940116084F84030FFF71DF822E7FE
:1055900081530008794C0008009C00FC70B5056838
:1055A000AB692968C3F38022C3F34024DB051ED511
:1055B0000E0624D5436C4FF4807143F0010343641D
:1055C000E961002A79D0436C4FF4806243F008030C
:1055D0004364EA6134B1436C4FF4007243F0020358
:1055E0004364EA61436C13F00B0F12D170BD42B1FA
:1055F0000A06E8D4436C13F00B0FF7D009E0002A39
:10560000F0D1002CEED00B06E5D4436C13F00B0F59
:10561000ECD090F8412000213E4C80F84210283A0E
:10562000C4624185022A446C43EA0403436490F84F
:1056300041302AD990F841302B6823F0FE032B60CB
:1056400090F84130602B02D0202380F841300023B5
:10565000036343632B68044613F4804330D02B6804
:10566000826B23F480432B60002ABFD02A49002399
:105670001046116584F84030FCF750FF0028B5D083
:10568000A06BBDE87040036D1847282690F8414094
:1056900033403440B3422B6814BF6FF0F6026FF012
:1056A0004602B4421D4C18BF6FF0F60213402B6047
:1056B00080F8416044630163CCE7002C8BD191E713
:1056C0002A6812F4004214D02A68C16B22F4004206
:1056D0002A6000298AD0104A08460A6584F84030BA
:1056E000FCF71CFF002881D0E06BBDE87040036D23
:1056F000184790F84130602B04D080F84020FEF726
:10570000AFFF70BD202380F8402080F84130FEF7C5
:10571000A9FF70BD0000FFFF294F00085549000890
:1057200070B5856BAC6B24B122685468B4FA84F40C
:105730006409EB6B002B48D01A685368B3FA83F303
:105740005B09002B41D0FDF7C3FA022843D02B6838
:10575000002044495A6842F400425A6095F84120BA
:1057600085F84200283AE9626885696C022A41F0AE
:105770001001696430D995F8412095F841201A68E4
:1057800022F0FE021A6095F84120602A02D0202201
:1057900085F8412000222A636A631A6812F4804265
:1057A00034D01A68A96B22F480421A6099B12E4A4B
:1057B000002308460A6585F84030FCF7AFFE50B17B
:1057C000A86BBDE87040036D1847FDF781FA022809
:1057D00001D0E307BBD470BD95F84120282495F88B
:1057E000411022401E682140A24214BF6FF0F60211
:1057F0006FF04602A1421D4918BF6FF0F602324019
:105800001A6085F8414069632863C6E7196811F496
:10581000004114D01968EC6B21F400411960002C90
:10582000D9D0114B2046236585F84020FCF776FE41
:105830000028D0D0E86BBDE87040036D184795F89C
:105840004130602B05D085F840102846FEF708FF50
:1058500070BD202385F84010284685F84130FEF7BA
:1058600001FF70BD0000FFFF294F000855490008E7
:1058700090F84130DBB2202B70B41FD190F840205B
:10588000012A1BD002682424002680F841401568B4
:10589000344625F001051560156825F4805515601E
:1058A000156829431160116841F00101116080F809
:1058B000406080F84130204670BC7047022420468A
:1058C00070BC704790F84130DBB2202B70B41ED111
:1058D00090F84020012A1AD002682424002680F87B
:1058E00041401468354624F001041460146824F41F
:1058F000706444EA01211160116841F001011160F6
:1059000080F8406080F84130284670BC704702251E
:10591000284670BC704700BF38B5114BDA68520793
:1059200006D4DB6803F00703834201D0012038BDB1
:105930000B4AD368144623F007031843D060FBF7E3
:1059400073F8054605E0FBF76FF8401BB0F57A7F6A
:1059500004D863689B04F6D5002038BD032038BD09
:1059600000480258024AD36843F08073D3607047FE
:1059700000480258002800F09081F8B503680446FA
:10598000D90733D5A1490A69896A02F03802102A79
:1059900000F00981182A00F001816368B3F5803FA7
:1059A00010D0002B00F06281B3F5A02F974B1A683E
:1059B00000F0D68122F480321A601A6822F4802224
:1059C0001A6004E0914A136843F480331360FBF7D4
:1059D0002BF88E4D064605E0FBF726F8801B642861
:1059E00000F242812B689B03F6D52368980700F1EB
:1059F0008980D90630D5854A1369926A03F0380345
:105A0000082B00F0E080182B00F0D880E369002B11
:105A100000F06B817D4B1A681D4642F080021A60CF
:105A2000FBF702F8064605E0FAF7FEFF801B0228A6
:105A300000F21A812B68DB05F6D5FBF70DF841F271
:105A40000303984200F217826B68226A23F0F8433E
:105A500043EA82636B6023681D0717D56369002BD7
:105A600000F01D81694B5A6F1D4642F001025A67D2
:105A7000FAF7DAFF064605E0FAF7D6FF801B0228A0
:105A800000F2F2806B6F9807F6D523689A0617D557
:105A9000A369002B00F016815C4B1A681D4642F486
:105AA00080521A60FAF7C0FF064605E0FAF7BCFF1D
:105AB000801B022800F2D8802B689F04F6D523684B
:105AC000590700F19880636AD3B1504A116901F017
:105AD0003801182970D0022B136800F0498123F097
